:020000040800F2
:10000000084800205D020008D71F00087F1C000878
:10001000D51F00088D030008FB2400080000000025
:100020000000000000000000000000009D0100082A
:100030008F03000800000000F9010008E51F000818
:1000400077020008770200087702000877020008AC
:10005000770200087702000877020008770200089C
:10006000770200087702000877020008770200088C
:10007000770200087702000877020008770200087C
:10008000770200087702000877020008770200086C
:10009000770200087702000877020008770200085C
:1000A000770200087702000877020008770200084C
:1000B000770200087702000877020008770200083C
:1000C000770200087702000877020008770200082C
:1000D000770200087702000877020008770200081C
:1000E000770200087702000877020008770200080C
:1000F00077020008770200087702000877020008FC
:1001000077020008770200087702000877020008EB
:1001100077020008770200087702000877020008DB
:1001200077020008770200087702000877020008CB
:1001300077020008770200087702000877020008BB
:10014000770200087702000877020008D91F00082C
:10015000770200087702000877020008770200089B
:10016000770200087702000877020008770200088B
:1001700077020008770200087702000800000000FC
:100180007702000877020008DFF80CD000F0ECF8E6
:100190000048004749250008084800202C4B1968F2
:1001A0000868B0E8F04F80F30988BFF36F8F4FF015
:1001B000000080F3118870470000000008480068C4
:1001C000006880F308884FF0000080F3148862B65E
:1001D00061B6BFF34F8FBFF36F8F00DF00BF00BF6B
:1001E00008ED00E0DFF80C00016841F470010160E7
:1001F000704700BF88ED00E0EFF30980BFF36F8F19
:10020000134B1A681EF0100F08BF20ED108A20E96A
:10021000F04F106009B44FF0500080F31188BFF325
:100220004F8FBFF36F8F02F0CFFE4FF0000080F3CF
:10023000118809BC19680868B0E8F04F1EF0100F6B
:1002400008BFB0EC108A80F30988BFF36F8F704746
:100250001C000020EFF3058070470000064880472F
:1002600006480047FEE7FEE7FEE7FEE7FEE7FEE79B
:10027000FEE7FEE7FEE7FEE795200008890100089B
:100280002DE9F05F0546002092469B4688460646CB
:10029000814640241BE0284641464746224600F05E
:1002A00053F853465A46C01A914110D31146184686
:1002B000224600F03AF82D1A67EB01084F46224615
:1002C0000120002100F031F817EB00094E41201EFB
:1002D000A4F10104DFDC484631462A464346BDE826
:1002E000F09F40EA01039B0703D009E008C9121FF1
:1002F00008C0042AFAD203E011F8013B00F8013BE0
:10030000521EF9D27047D2B201E000F8012B491E0B
:10031000FBD270470022F6E710B513460A460446A2
:100320001946FFF7F0FF204610BD202A04DB203AD3
:1003300000FA02F1002070479140C2F1200320FA38
:1003400003F3194390407047202A04DB203A21FA36
:1003500002F00021704721FA02F3D040C2F12002DE
:100360009140084319467047064C074D06E0E06887
:1003700040F0010394E8070098471034AC42F6D3EC
:10038000FFF706FF5837000878370008FEE7704788
:1003900072B6FEE72DE9F84FDFF8BCA10022012577
:1003A00003264FF00F090AF1040BAAF1040E00BF57
:1003B0000B6805FA02F42340A34270D10F7907F0CD
:1003C0000307012F01D0022F16D187684FEA420898
:1003D00006FA08FC27EA0C07D1F80CC00CFA08FC56
:1003E0004CEA070CC0F808C04768A7430C79C4F36F
:1003F000001494403C4344600C79E443A4070AD0C1
:10040000C4684FEA420C06FA0CF7BC438F6807FA3F
:100410000CF72743C7600C7904F00304022C12D1B7
:10042000D40800EB840CDCF820405707FF0E09FAD3
:1004300007F824EA0804D1F8108008FA07F848EA17
:100440000408CCF8208004684FEA420C06FA0CF746
:10045000BC430F7907F0030707FA0CF7274307603F
:100460004C6814F4403F70D03C4C276847F48047F8
:100470002760246822F0030704F480440094384C79
:1004800007EB040CDCF8084897074FEA177809FADD
:1004900008F7BC43334FB84202D1002724E054E0B0
:1004A000314FB84201D101271EE0304FB84201D18F
:1004B000022719E02E4FB84201D1032714E02D4F37
:1004C000B84201D104270FE02B4FB84201D10527D4
:1004D0000AE02A4FB84201D1062705E0284FB8426A
:1004E00001D1072700E0082707FA08F72743CCF8CF
:1004F0000878DAF800405746D1F804C09C435FEA18
:10050000CC2C00D51C433C60DBF800405F46D1F8A2
:1005100004C09C435FEA8C2C00D51C433C60DEF891
:1005200000407746D1F804C09C435FEA8C3C00D57C
:100530001C433C60084F083F3C68D1F804C09C4312
:100540005FEACC3C00D51C433C60521C102AFFF4EF
:100550002FAFBDE8F88F0000083C0140443802404E
:100560000030014000000240000402400008024048
:10057000000C02400010024000140240001802402B
:10058000001C02400069084000D0012070470AB1F9
:10059000816170470904FBE70148806870470000EB
:1005A0000C000020D0F8000301F01ABED0F80003C0
:1005B00001F027BED0F8000301F051BE2DE9F04153
:1005C00006680446304601F0ABFE012875D120686C
:1005D00001F02BFF002870D0206801F026FF800278
:1005E00003D521684FF400104861206801F01DFF19
:1005F000C00203D521684FF480104861206801F0E3
:1006000014FF400103D521684FF0806048612068E5
:1006100001F00BFF800702D52168022048612068A5
:1006200001F003FF800015D521684FF000504861AC
:10063000D6F84004C0070DD11021304601F050FE1D
:10064000304601F02FFE0121206801F0D3FE204644
:10065000FFF7ACFF206801F0E8FEC00102D520469C
:1006600001F07DFA206801F0E0FE000705D5204684
:1006700000F049F8216808204861206801F0D5FEA3
:10068000C043C0060CD42068816921F0100181614B
:10069000204601F0AEFA2068816941F010018161C5
:1006A000206801F0C2FE800123D5206801F09EFE83
:1006B000074600254FF0010814E01AE005F00F018D
:1006C00008FA01F038420CD006EB4510D0F80005CE
:1006D000E9B20004204602D501F03EF801E001F045
:1006E00030F96D1CA068A842E8D821684FF000706E
:1006F0004861BDE8F081D0F8000301F0BBBDD0F83F
:10070000000301F0BBBDD0F8000301F099BD10B5A6
:10071000044690F8F802012809D0012084F8F80274
:10072000206801F0A5FE002084F8F80210BD022028
:1007300010BD000070B5040025D094F83D000025E0
:1007400020B984F83C50204600F0B8F8242084F802
:100750003D002068016821F0010101602068016806
:1007600041F4004101602068016821F4004101600A
:1007700000F0E0FC4D4A6168914201D84C4900E02C
:100780004C49884201D2012070BD4B492368B0FB1F
:10079000F1F15E6826F03F060E435E6063689342A7
:1007A00006D94FF4967359434FF47A73B1FBF3F1C2
:1007B0002368491C1E6A26F03F06314319626168AE
:1007C000914210D84900401EB0FBF1F2521CC2F316
:1007D0000B02042A01D2042022E0B0FBF1F0401CFD
:1007E000C0F30B001CE0A268F2B301EBC10303EB02
:1007F0000116431EB3FBF6F35B1C43F480431B0559
:1008000049D092B301EBC10202EB0111401EB0FBD3
:10081000F1F0401CC0F30B0040F4804040F4004075
:100820002168CA694CF6FF739A431043C861D4E942
:10083000071001432068026822F0C00211430160E2
:10084000D4E9030101432068826848F2FF339A43E8
:1008500011438160D4E9050108432168CA6822F088
:10086000FF021043C86001E00EE016E02068016856
:1008700041F0010101602564202084F83D002563DA
:1008800084F83E50002070BD01EB4106431EB3FBCF
:10089000F6F35B1CB3E70120C2E701EB4101401E08
:1008A000B0FBF1F0401CC0F30B00B7E7A0860100DD
:1008B00080841E0000093D0040420F0010B586B044
:1008C000044614216846FFF725FD14492068884234
:1008D00021D113480021026842F002020260006840
:1008E00000F0020005904FF410700090122001906B
:1008F0000120CDE902010420049069460948FFF770
:1009000049FD07481030016841F40011016000689A
:1009100000F40010059006B010BD00000054004027
:1009200030380240000402402DE9FF4104460068CF
:10093000816800917749784E4FF04027884201D175
:10094000324600E03A46926801924068884602903A
:1009500001D1304600E038464068039060684FF0AF
:100960000105B0F5007F1CD0D8B1900705D50398DC
:10097000000602D5204601F0B3F90098C0070FD059
:10098000029840067FD521682046CA68E16A8B1C20
:10099000E3620A80618E491E6186618E002967D0FC
:1009A00071E00098800719D50298000616D5616A93
:1009B00020468A1C626222680988D160618D491EC6
:1009C0006185618D51B901684A6822F0A0024A60D0
:1009D000418E19B980F8415000F0A0F80198C00785
:1009E00005D00398400602D5204601F049F9019848
:1009F000400622D5039880061FD52168414501D1C4
:100A0000304600E03846406820F0600101D13046B1
:100A100000E0384641602068416821F0A001416053
:100A20002068C1688068019084F84150606C40F093
:100A300002006064204600F072F80098000767D555
:100A40000298800664D52068416821F0A0014160C9
:100A50002168414501D1304600E03846406820F029
:100A6000600000D03E46706020688068009043E0DF
:100A700001684A6822F060024A60418D19B980F825
:100A8000415000F04BF8009840061ED502988006B1
:100A90001BD52068416821F0600141602168414513
:100AA00001D1304600E03846406820F0A00101D175
:100AB000304600E03846416084F84150606C40F0B8
:100AC00002006064204600F02AF8019800071FD554
:100AD000039880061CD52168414501D1304600E0CD
:100AE0003846406820F0A00000D03E467060206884
:100AF000416821F06001416084F84150606C40F031
:100B00000400606404B02046BDE8F04100F007B87E
:100B1000BDE8FF8100380040003400407047704756
:100B20002DE9F047040005D094F841004FF000088B
:100B300018B109E00120BDE8F08784F840805148F1
:100B40006063204600F0A6F8022684F84160206821
:100B5000C16940F6BF77B943C16120680662606928
:100B60004FF4007902282FD0E06870B12025A068EA
:100B7000202800D86D00012000F076F92169494550
:100B80001FD1E16819B1A90002E01025EFE7E900E3
:100B9000B0FBF1F000EB800061694000B0FBF1F0C8
:100BA000401D0A21B0FBF1F000F00101401A40089D
:100BB0000902821EFE2A09D3606C40F010006064B6
:100BC000B8E7B0FBF5F0E5E7022000212269084311
:100BD000024320680262D4E901010843A269E16886
:100BE000114308432168CA69BA43104340F40060C6
:100BF000C861206A01283AD12348606323482168EC
:100C0000234A4FF04023814201D1114600E01946AA
:100C1000C96921EA070101D1154600E01D46E961D5
:100C20002168814201D1114600E019460E62256813
:100C3000854201D1114600E01946C9698EB261684A
:100C400049451BD0D1B100212789B4F80CC047EA2F
:100C50000C07B4F818C04CEA010C47EA0C07B9B20B
:100C6000314341F40061854200D01A46D161C4F895
:100C70004480012084F8410000205CE74FF480713B
:100C8000E2E70000411D0008290900080038004083
:100C90000034004070B58AB0054614216846FFF75D
:100CA00039FB002405940694079408942149286888
:100CB00088423CD101200590C0200225CDE90605DF
:100CC00005A800F0FFF808B1FFF762FB1A480168B9
:100CD00041F400410160006800F4004009901648AA
:100CE0001038016841F001010160016801F0010163
:100CF0000991016841F0040101600068062600F0D6
:100D00000400099010200090CDE90154CDE903467C
:100D100069460A48FFF73EFB4FF4A4500090CDE926
:100D20000154CDE9034669460548FFF733FB0AB095
:100D300070BD0000003C004040380240000002400E
:100D400000080240704770470248816802781144E9
:100D5000816070470C0000200B4810B5016841F419
:100D600000710160016841F480610160016841F433
:100D700080710160032000F065F80F2000F006F894
:100D800000F024F8002010BD003C024070B50D4D6D
:100D900004464FF47A712878B1FBF0F00A490968EB
:100DA000B1FBF0F000F05EFC48B9102C07D2002235
:100DB0002146501E00F026F800206C6070BD012016
:100DC00070BD00000C000020180000200C4882B00C
:100DD000016841F480410160006800F480400090A7
:100DE0000748001F016841F080510160006800223F
:100DF00000F0805000900F21901E02B000F002B869
:100E000044380240F0B40E4B1B680C46C3F3022377
:100E1000C3F10705042D00D90425191D072901D2A6
:100E2000002300E0DB1E012606FA05F1491E2140E1
:100E300099409E40761E16403143F0BC01F05EBBE7
:100E40000CED00E0064900F0070208684FF6FF03CA
:100E5000184040EA0220034A10430860704700002F
:100E60000CED00E00000FA0501460020012907D141
:100E70001049096811F4000103D0012900D10E487E
:100E800070470C48001F01680068490200F03F00ED
:100E900001D50A4900E00A49064AB1FBF0F07C326C
:100EA0001168C1F3881141431068C0F30270B1FBAF
:100EB000F0F07047083802400080BB0000127A0052
:100EC0000024F4002DE9F843054600684FF00109BD
:100ED000C1074FF0000601D1400727D5DFF80C818C
:100EE000C8F86860FFF758FB0746414C05E000BFB3
:100EF000FFF752FBC01B022857D820680001F7D427
:100F000068688101287A41EA0070394984310860B3
:100F1000C8F86890FFF740FB074604E0FFF73CFB8A
:100F2000C01B022841D820680001F7D52878800727
:100F300052D52F484030016841F08051016000686F
:100F40002C4C00F080500090206840F480702060AD
:100F5000FFF722FB074604E0FFF71EFBC01B022839
:100F600023D82068C005F7D5214C7034206810F4D0
:100F7000407020D0A98901F4407181421BD02068C3
:100F80001D4920F44070C1F800900E602060206878
:100F9000C00710D0FFF700FB064641F2883707E094
:100FA000FFF7FAFA801BB84202D90320BDE8F883A4
:100FB00020688007F4D5E9680D48C1F301220830A4
:100FC000032A0BD0016821F4F81101602068A98977
:100FD000C1F30B01084320600020E7E70268074BDC
:100FE00022F4F81219400A430260EFE7000047427A
:100FF0000038024000700040400E4742FFFCFF0FE7
:101000002DE9F0470E46050065D0DFF81481D8F8C9
:101010000000F7B200F00700B04207D288F8007075
:10102000D8F8000000F00700B04254D128683D4CC9
:10103000810712D5400703D5206840F4E0502060B6
:101040002878000703D5206840F4604020602068BD
:10105000A96820F0F000084320602878C0072DD050
:10106000304968680839012812D0022813D00328B3
:1010700011D00968890700292DDA216821F00301C0
:1010800001432160FFF788FA814641F2883A0EE079
:1010900009688903EFE709688901ECE7FFF77CFA43
:1010A000A0EB0901514502D90320BDE8F087206873
:1010B000696800F00C00B0EB810FEFD1D8F8001098
:1010C000404601F00701B14207D90770006800F0FF
:1010D0000700B04201D00120E7E72878400705D596
:1010E0002068E96820F4E050084320602878000771
:1010F00006D52068296920F4604040EAC1002060DC
:1011000000F038F82168084AC1F30311515CC84067
:101110000649086006480068FFF738FE0020C4E76B
:10112000003C024008380240403700081800002008
:10113000100000200448054900680968044AC1F30A
:101140008221515CC84070471800002008380240D6
:10115000503700080448054900680968044AC1F38B
:101160004231515CC84070471800002008380240E6
:1011700050370008154810B5006810F00C021448EC
:1011800013D04110042A0FD0082A0ED10F4C241F6F
:101190002268236802F03F025B0207D52068C0F393
:1011A0008810A0FB010106E0084610BD2168C1F3CC
:1011B0008811A1FB00010023FFF762F82168C1F349
:1011C0000141491C4900B0FBF1F010BD0838024054
:1011D0000024F4002DE9F84F04006ED02078DFF8E9
:1011E0004C93C007A9F104054AD009F10400016835
:1011F000C1F38101012908D00068C0F381000228F1
:101200000AD1D9F80000400206D52868800337D5F6
:1012100060680028E1D033E06068B0F5803F10D00E
:10122000B0F5A02F286810D020F4803028602868FE
:1012300020F4802028606068A8B1FFF7ADF9064669
:101240000DE0286840F48030F4E740F48020286006
:10125000F7E700BFFFF7A0F9801B642873D8286860
:101260008003F7D50CE0FFF797F9064605E000BFCD
:10127000FFF792F9801B6428F0D828688003F7D420
:101280002078DFF8AC8280074FF0000A3ED5A748EF
:10129000001D016811F00C0F08D00068C0F3810038
:1012A00002280BD1D9F80000400207D42868800733
:1012B00016D5E068012800D112E033E1E068B8B14A
:1012C0000120C8F80000FFF767F9064605E000BFF7
:1012D000FFF762F9801B0228C0D828688007F7D57D
:1012E0002868216920F0F80040EAC10028600DE07C
:1012F000C8F800A0FFF750F9064604E0FFF74CF9E4
:10130000801B02281FD828688007F7D420780007A0
:1013100022D5864F87486169703771B1012101601C
:10132000FFF73AF9064604E0FFF736F9801B02287A
:1013300009D838688007F7D50EE0C0F800A0FFF79D
:101340002BF9064605E082E0FFF726F9801B02280C
:101350007DD838688007F7D42078400768D5DFF853
:10136000CCB100270BF13C0BDBF80000C0000BD424
:10137000DBF8001041F08051CBF80010DBF80000E2
:10138000012700F0805000906B4E3068C00510D4EB
:10139000306840F480703060FFF7FEF8009005E0A0
:1013A000FFF7FAF80099401A022850D83068C005B3
:1013B000F6D55E4EA0686C3601280FD0052830683F
:1013C00010D020F001003060306820F00400306060
:1013D000A068B8B1FFF7E0F800900FE0306840F087
:1013E0000100F4E740F004003060F7E7FFF7D4F8BD
:1013F0000099411A41F28830814266D830688007EE
:10140000F4D50EE0FFF7C8F8009007E0FFF7C4F846
:101410000099411A41F28830814256D830688007DD
:10142000F4D42FB1DBF8001021F08051CBF800107C
:10143000A069C8B33D49091D0968C1F381010229AA
:101440004AD00228504607D0C8F8600000E03CE0CF
:10145000FFF7A2F804463BE04746C8F86000FFF7F4
:101460009BF8064605E000BFFFF796F8801B0228B0
:101470002BD828688001F7D4D4E907010843A16A72
:101480002E4A490802EB0141626A41EA821108438F
:1014900094F82C1040EA0161C9F800100120386668
:1014A000FFF77AF8044606E03EE000BFFFF774F865
:1014B000001B022809D828688001F7D534E000BF56
:1014C000FFF76AF8001B022802D90320BDE8F88F55
:1014D00028688001F4D427E00128F7D0D9F800006B
:1014E000E26900F4800191421CD1226A00F03F01C0
:1014F000914217D147F6C071626A0140B1EB821F79
:1015000010D1A26A4FF0FF3300F4403103EB5202D6
:10151000B1EB024F06D194F82C1000F07060B0EBE4
:10152000016F01D00120D1E70020CFE7043802404D
:1015300000004742800E4742007000400000FFFF5D
:1015400070B5040009D0606A002540B1256165616D
:10155000A56294F8510040B10CE0012070BD6068B4
:10156000B0F5827FF4D0E561F2E784F85050204670
:1015700000F044F8022084F851002068016821F04E
:1015800040010160A088218900F4827001F40441C7
:101590000843A18901F400610843217C01F00201A4
:1015A0000843217D01F001010843218B01F4007102
:1015B0000843217F01F03801084394F8201001F01E
:1015C00080010843218D01F400510843216808601F
:1015D000A069042101EA104094F8241001F01001E0
:1015E0000843216848602068C16921F40061C16135
:1015F0006565012084F85100002070BD10B586B0EB
:10160000044614216846FEF785FE13492068884287
:101610001FD112480021026842F480520260006823
:1016200000F4805005900D481438026842F0010221
:101630000260006800F001000590E02000900220A8
:10164000CDE901010520CDE9031069460448FEF704
:10165000A1FE06B010BD0000003001404438024039
:101660000000024010B5401EB0F1807F01D3012080
:1016700010BD4FF0E02460610F21601700F03EFFC5
:101680000020A06107202061002010BD70B504007B
:1016900004D094F83D00002510B106E0012070BD93
:1016A00084F83C50204600F023F8242084F83D00C4
:1016B0002068C16821F40051C160204600F0F2FCAE
:1016C0002068016921F4904101612068416921F09D
:1016D0002A0141612068C16841F40051C16025645C
:1016E000202084F83D0084F83E00002070BD0000FA
:1016F00010B586B0044614216846FEF70BFE134968
:101700002068884220D112480021026842F4003249
:101710000260006800F4003005900D48103802683F
:1017200042F001020260006800F0010005900C2008
:1017300000900220CDE901010320039007200490CE
:1017400069460448FEF726FE06B010BD004400407E
:1017500040380240000002402DE9F047074600688B
:101760000D4600EB4116D6F8080501EB4103420790
:1017700003EBC5014FF006004FF004084FF0050AD7
:1017800007EB810401D541463CE0D6F80815C905B0
:1017900007D54FF48070C6F80805072084F861006B
:1017A0001CE0D6F80815890603D52020C6F80805E0
:1017B00018E0D6F808150A074FF0080104D5C6F856
:1017C000081584F861A009E0D6F80825520514D55B
:1017D0004FF48060C6F8080584F86110294638681F
:1017E00000F0A2FDD6F8080580050ED52946386818
:1017F00000F09AFD4FF40070A0E0D6F80815090635
:10180000F0D58021C6F80815C8E7D6F808054FF0CE
:101810000001C0074FF010094FF001023BD03869BA
:1018200030B1A06CD6F81035C3F31203C01A20658E
:1018300084F86120E165C6F8082594F83F0030B1CE
:10184000022804D0032809D0012807D012E0294635
:10185000386800F069FDC6F808950BE0D6F8000579
:1018600040F00050C6F8000584F86020294638464C
:10187000FEF7A0FE3869012806D1B4F84010A06C2C
:10188000B0FBF1F0C00704D014F8540F80F0010051
:101890002070BDE8F087D6F80805800735D594F8A4
:1018A0006100022301280AD005280BD006280CD09D
:1018B00008280AD003280FD0072818D01CE084F885
:1018C000602019E084F860A016E0E06D401CE0653F
:1018D000022801D9E1650DE084F86030D6F80005F2
:1018E00020F0804040F00040C6F8000504E0E06DC4
:1018F000401CE06584F86080C6F8083594F86020E4
:1019000029463846FEF756FEC3E7D6F80805C00656
:10191000BFD594F83F00032803D020B1022802D09D
:101920000BE0E16505E0E165386930B9032084F832
:1019300061002946386800F0F7FC4846C6F80805FB
:10194000A7E72DE9F047026802EB4114D4F8082517
:1019500001EB4103550703EBC1034FF004024FF0C5
:10196000060A00EB830304D5C4F8082583F861A0B8
:1019700051E0D4F808554FF00007AD064FF0020CC7
:101980000BD52022C4F8082593F83D20012A33D135
:1019900083F83D7083F860C03DE0D4F80855AD058C
:1019A00004D54FF40072C4F8082534E0D4F8085583
:1019B0004FF001065FEAC5784FF040050DD0DF65B6
:1019C000D4F80825520603D583F83D60C4F80855BD
:1019D000C4F8086583F861601DE0D4F808855FEA03
:1019E00048680BD583F8612083F83D60DF650068A7
:1019F00000F09AFCC4F80855BDE8F087D4F8085503
:101A00004FF008095FEA05784FF0050508D5C4F8DE
:101A1000089583F861500068BDE8F04700F084BC89
:101A2000D4F808855FEAC86810D50322DF6583F81B
:101A3000612093F83D2022B993F83C200AB983F83D
:101A40003D60006800F070FC10201AE0D4F80885B2
:101A50005FEA086818D5056955B1DD6D6D1CDD6557
:101A6000022D0BD9DF6583F86020FEF7A3FD07E0A8
:101A700083F861A0006800F057FC01E083F860C0C3
:101A80008020C4F80805B7E7D4F808855FEA48580D
:101A900007D583F86190006800F046FC4FF4806041
:101AA000EFE7D4F808855FEA8878A5D593F86180D8
:101AB000B8F1010F0FD0B8F1030F30D0B8F1040F17
:101AC0002DD0B8F1050F2DD0B8F1060F2DD0B8F1FB
:101AD000080F2AD03CE083F8606093F83F20022A88
:101AE00001D0032A34D102692AB993F8552082F033
:101AF000010283F855200269012A29D1DA6C3AB330
:101B0000B3F840502A44521EB2FBF5F2D2071FD060
:101B100093F8552082F0010283F8552018E083F8ED
:101B200060C015E083F8605012E0DD6D6D1CDD656E
:101B3000022D03D9DF6583F8602009E083F860C0D7
:101B4000D4F8002522F0804242F00042C4F800257B
:101B5000C4F808C593F86020FEF72CFD4CE77CB56F
:101B600004680546D4F840040190D4F8400420F0FD
:101B70002E0000900198800709D50198C00702D077
:101B80002846FEF70FFD009840F0020000900198F3
:101B9000000724D5009840F0080000900198400705
:101BA0001AD5A869022803D0E86801280CD00FE0F4
:101BB0000198C0F341400228286803D0012100F0B9
:101BC00019FC05E00221FAE74EF66020C4F804048F
:101BD0002846FEF794FD02E02846FEF78CFD0198AA
:101BE0008006009802D540F020000090C4F8400420
:101BF0007CBD2DE9F041024600680646016AC1F34A
:101C0000434301F00F07C1F30A15022B31D1002D18
:101C10002FD007EB470101EBC70102EB8104616C98
:101C2000002926D0226DE36C2A449A4223D82A4602
:101C300000F0FFFB606C28446064206D2844206540
:101C400006EB4710D0F81015B4F84020C1F3C94195
:101C5000AA420ED100290CD0D0F8001521F0804105
:101C600041F00041C0F8001514F8540F80F0010055
:101C70002070BDE8F081042084F86000F9E7FEE7F9
:101C800070B515490268154B4FF040248A4201D1C6
:101C90001A4600E02246D568C26A961CC6621580C4
:101CA000428E521E4286428E002A14D102688A4217
:101CB00001D1194600E02146496821F0600100D0B9
:101CC00023465960418D002905D14FF0010180F86C
:101CD0004110FEF723FF70BD003800400034004083
:101CE00070B5416A144B8A1C426205680988134A20
:101CF0004FF040249D4201D1154600E02546E960A1
:101D0000418D491E4185418D002914D101689942B8
:101D100001D1114600E02146496821F0A00100D020
:101D200022465160418E002905D14FF0010180F813
:101D30004110FEF7F3FE70BD003800400034004053
:101D40007CB5016804468868009094F8410001253C
:101D5000042834D10098C00718D04868C043400612
:101D600014D4C9682046E26A1180E16A891CE162E4
:101D7000618E491E6186618E41B901684A6822F010
:101D800060024A6080F84150FEF7DCFF0098400690
:101D900015D520684168C943890610D4416821F0EF
:101DA000600141602068C1688068019084F84150FA
:101DB000606C40F0020060642046FEF7B0FE94F8CC
:101DC0004100032834D10098800719D5216848685C
:101DD000C043000614D4626A20461288CA60616A51
:101DE000891C6162618D491E6185618D41B90168FF
:101DF0004A6822F0A0024A6080F84150FEF7A3FF33
:101E00000098000714D520684168C94389060FD49B
:101E1000416821F0A001416020688068009084F84A
:101E20004150606C40F0040060642046FEF777FE8D
:101E30007CBD00002DE9F04F87B014216846FEF705
:101E400069FA4E480024016841F010010160016800
:101E500001F010010591016841F004010160016881
:101E600001F004010591016841F080010160016801
:101E700001F080010591016841F0010101600168F4
:101E800001F001010591016841F002010160016862
:101E900001F002010591016841F00801016000684C
:101EA000002200F00800059008213548FEF76FFB7E
:101EB000DFF8D080012211464046FEF768FBDFF8CC
:101EC000C8B04FF21009002249465846FEF75FFBA2
:101ED000082601250096CDE9015469462848039457
:101EE000FEF758FA0095CDE901546946404603943F
:101EF000FEF750FA00960226CDE901640527CDE9E8
:101F0000034769464046FEF745FA4FF4901800959E
:101F1000CDE9018469461D48FEF73CFA0420CDE96D
:101F20000004DFF86CA0694650460294FEF732FACE
:101F3000A8020090CDE90164CDE903476946504607
:101F4000FEF728FACDF80090CDE9015469465846CD
:101F50000394FEF71FFA2020CDE900046946584695
:101F60000294FEF717FA0096CDE901846946044809
:101F7000FEF710FA07B0BDE8F08F000030380240DD
:101F80000010024000080240000C02400000024025
:101F9000000402400E4810B50C4901604FF48271F4
:101FA000416000218160C1604FF400720161C0E9AD
:101FB0000512C1610162416281620A21C162FFF7BB
:101FC000BFFA002801D072B6FEE710BD0030014014
:101FD00020010020FEE7FEE70148FEF7EFBA00000F
:101FE0001004002010B5FEF7AFFE01F04DFA0128F5
:101FF00003D0BDE8104001F08FB810BD30B593B0EC
:1020000030216846FEF786F914210CA8FEF782F904
:102010001E480025016841F080510160006800F011
:10202000805011901A48016841F4804101600068B5
:10203000022400F4804011900120009000040190DF
:102040008001CDE90640082008904FF4A870CDE942
:10205000090407200B906846FFF7BCF808B172B678
:10206000FEE70CA90F2081E831004FF4A0500F903B
:102070004FF48050109005210CA8FEF7C1FF0028F6
:1020800001D072B6FEE713B030BD00004038024008
:10209000007000400248016841F47001016070471F
:1020A00088ED00E070B5044600680169E26821F43B
:1020B0004051114301612169A068E26908436169E7
:1020C000114308432168CA6849F20C639A430243EA
:1020D000CA6020684169A26921F4407111434161DD
:1020E00031492068884202D03049884202D1FFF746
:1020F00031F801E0FFF71EF8E26900231921642599
:102100003226B2F5004F626828D0A0FB0101930F80
:102110009200FEF7B5F80146B0FBF5F06FF018023B
:10212000504301EB800006EB0010B0FBF5F000F02F
:10213000F002B1FBF5F002EB0012B1FBF5F06FF02D
:102140001803584301EB800006EB0010B0FBF5F0DC
:1021500000F00F0021681044886070BDA0FB0101F1
:1021600092185B41FEF78CF80146B0FBF5F00201D6
:10217000B1FBF5F06FF01803584301EB800006EB5C
:10218000C000B0FBF5F000F0F80002EB4002B1FB3C
:10219000F5F0584301EB800006EBC000B0FBF5F012
:1021A00000F00700D6E700000010014000140140D5
:1021B000102907D200EB8100B0F88413C1F30E019F
:1021C000C0F884130020704701004FF0000004D0D5
:1021D000012901D0022901D0022070470120704757
:1021E00010B5012180F82013002280F8212380F807
:1021F0002223C0F8E013D0F8D80300F0A5FA00209D
:1022000010BD70B50125044680F82153002084F8E4
:10221000200384F82303204600F03AF82179204671
:10222000FFF7C6FF61792046FFF7C2FFC4F8E0530D
:1022300000222946D4F8D80300F086FA002070BDA9
:10224000D0F8C413491CC0F8C41301780B2905D178
:10225000D0F87C13002901D089690847704710B570
:102260000121C0F8E013D0F8D803002200F06CFA86
:10227000002010BD002180F823137047012180F851
:102280002313C0F8E013D0F8D803002200F05CBAA2
:1022900010B5D0F8D003FEF73AFABDE81040FFF7CA
:1022A00093BF000008B500220C490092009B5B1C04
:1022B00000938B420AD80369002BF7DA00921022B0
:1022C0000261009A521C00928A4201D9032008BD83
:1022D0000269D206F5D4002008BD0000400D0300BD
:1022E00018B500230D4A0093009C641C009494428E
:1022F0000CD80469002CF7DA0093202343EA8111FB
:1023000001610099491C0091914201D9032018BD37
:1023100001698906F5D4002018BD0000400D0300B6
:10232000406900F00100704718B5002200EB411130
:102330000092D1F80025D1F80035C2F381428468BB
:10234000DB0FA40600D51BB34FF47A736AB1022ADF
:102350000BD0D1F8002542F08042C1F80025D0F81A
:10236000100410F47F0F2BD00CE0D1F8002542F0C0
:102370008042C1F800258268920609D4C06A10F430
:102380007F0F07D0D1F8000540F00040C1F80005EC
:10239000002018BDD1F8000520F00040C1F800056C
:1023A000D1F8000540F00040C1F800050098401C3D
:1023B00000909842ECD8D1F800050028F6DBE7E75A
:1023C000D1F8000520F00040C1F80005D1F8000563
:1023D00040F00040C1F800050098401C0090984271
:1023E000D6D8D1F800050028F6DBD1E7D0F81404E0
:1023F00080B27047D0F8002422F00302C0F8002415
:10240000D0F8002401F003031A43C0F80024012986
:1024100002D0022903D006E04BF6803101E041F200
:102420007071C0F804140020704741698069084049
:10243000704730B503460846940802F003010022B5
:1024400003F5805303E01D6840F8045B521CA24270
:10245000F9D300290BD01C680022D50024FA05F31B
:10246000491E521C090400F8013B090CF5D130BD8E
:1024700038B5002504460095806820F00100A06072
:1024800010212046FFF72CFF00B101252046FFF761
:1024900009FF00B10125002004EB4011D1F800250F
:1024A00022F0802242F08042C1F80025401C0F2813
:1024B000F2D900204FF47A7304EB4011D1F80025D3
:1024C00022F4004242F04042C1F80025009A521C1A
:1024D00000929A4203D8D1F80025002AF6DB401C6E
:1024E0000F28E9D94FF0FF30C4F814046061A068E8
:1024F00040F00100A060284638BDFEE70907090E3C
:10250000002804DB00F1E02080F80014704700F0A0
:102510000F0000F1E02080F8141D704702E008C8A9
:10252000121F08C1002AFAD170477047002001E04D
:1025300001C1121F002AFBD17047EFF3058000286C
:1025400000D00120704700001CB52F48016841F001
:1025500001010160FEF700FCFFF750FDFFF76AFC88
:102560002B482A49002401602A49C0E901144FF48C
:102570008041C0E9034144618461C4610462FEF7A3
:10258000D9F808B172B6FEE72148234954300160FA
:102590004915C0E90114C0E903412049C0E9051407
:1025A000C4610462FEF7BCFA08B172B6FEE7FFF739
:1025B000F1FC17481A49F43001604FF41651C0E994
:1025C00001140C21C460C0E904418461C461FFF7B7
:1025D0005DF808B172B6FEE712480424CDE9004068
:1025E0000023802210A1154800F0F6FE0D480023BC
:1025F000001DCDE90040802211A1154800F0ECFE3D
:1026000000F0A4FCFEE70000001000E000540040D1
:1026100084000020A0860100003C004000770100FB
:1026200000440040040000204275746F6E206F6B00
:10263000756D61207461736B690000005526000898
:102640004C65642079616B6D61207461736B690006
:1026500081260008084D094C01212846FDF792FF0C
:102660000128F9D101212846FDF78CFF0128F9D076
:102670002078401C2070EFE700000240000000209E
:102680002F4C304D4FF6FF762078E8B1012821D04D
:1026900002282ED003283BD004284FF001023146F7
:1026A00028463DD0FDF773FF4FF4FA67384600F037
:1026B00001FC002231462846FDF769FF384600F04C
:1026C000F9FB00202070DFE7002231462846FDF7A5
:1026D0005EFFD9E7012231462846FDF758FF642006
:1026E00000F0E8FB002231462846FDF750FF642049
:1026F00023E0012231462846FDF749FFFA2000F089
:10270000D9FB002231462846FDF741FFFA2014E0AC
:10271000012231462846FDF73AFF4FF4FA7703E0ED
:10272000FDF735FF4FF47A77384600F0C3FB0022FF
:1027300031462846FDF72BFF384600F0BBFBA3E7E8
:1027400000000020000C024037B5054682B0002092
:102750000090140000D10124FFF7EFFE4FF00003BA
:1027600088B16A4603A9284600F09CFD012811D1D2
:10277000009890B10A494FF080500860BFF34F8F26
:10278000BFF36F8F09E0224603A9284600F0DAFC68
:10279000012802D0FF2005B030BD0020FBE700007B
:1027A00004ED00E02DE9F041184C0F460546E668BF
:1027B0002068001D00F08CFA38B9206890F82C10C1
:1027C00001208840216981432161681C07D137B10C
:1027D0002168BDE8F0410E48091D00F0BDBA20682F
:1027E0003544B5424560216805D2A06BBDE8F04193
:1027F000091D00F099BA606B091D00F095FAA06AF6
:10280000854200D2A562BDE8F08100001C000020D6
:10281000F00700202DE9F041054600F0A9FA2E4C02
:10282000A068401CA06020682C4F10B1606940B3C4
:102830002DE02560A068012829D1002606EB86003E
:1028400007EB800000F062FA761C072EF6D32348CF
:102850008C3000F05BFA2148A03000F057FA1F4896
:10286000B43000F053FA1D48C83000F04FFA1B484E
:10287000DC3000F04BFA19488C3060631430A063F0
:1028800005E02068E96AC06A884200D82560606A6D
:10289000401C6062E96A012022698840104320617F
:1028A00001EB810007EB8000291D00F055FA00F0D4
:1028B0007FFA606900280CD02068E96AC06A884203
:1028C00007D207494FF080500860BFF34F8FBFF326
:1028D0006F8FBDE8F08100001C000020140700206D
:1028E00004ED00E02DE9F041856B17460446002613
:1028F000026C82B1C7B1E068FDF7F3FCE168206CBF
:10290000091AE1602268914202D2A168081AE060C7
:10291000022F16D017E02068A8B9A06800F028FEA2
:1029200006460020A0600EE06068FDF7DAFC216C2E
:10293000606808446060A168884204D320686060D1
:1029400001E005B16D1E6D1CA5633046BDE8F08148
:1029500010B5044690F8510058B101280CD0022857
:102960000FD0502080F31188BFF34F8FBFF36F8FCC
:10297000FEE7206B00F030FA2046BDE8104000F082
:102980002BBA10BD10484FF47051420706D0C01D3D
:102990000D4920F00700411AC1F570510B4A002380
:1029A0000144C2E900030839183A21F00701116017
:1029B0004B600B600B1AC0E9001393604FF00040AE
:1029C0005360506170470000040800207000002030
:1029D000144E154CA6F1C8074FF08058DFF84C9004
:1029E00012E000BF00F0C4F9F068C568281D00F0CF
:1029F0006FF9A068401EA0606068401E606000F033
:102A0000D7F92846FFF7A4FF60680028EAD13868A4
:102A10000128F9D9C9F80080BFF34F8FBFF36F8F3A
:102A2000F2E70000DC0700201C00002004ED00E0BD
:102A30002DE9F0479A46DDE9098481466FF00303EA
:102A4000206B03EB82021044089E20F007077807F2
:102A500007D0502080F31188BFF34F8FBFF36F8FE3
:102A6000FEE7002561B1002023180A5C83F83420BA
:102A70000A5C12B1401C1028F6D384F8435001E0E0
:102A800084F83450072E00D30626E662C4E91165A7
:102A9000201D00F046F904F1180000F042F924610D
:102AA000C6F107006462A061E56484F850505246A4
:102AB0004946384600F0F6F82060B8F1000F01D022
:102AC000C8F80040BDE8F08730B5114900E0114674
:102AD0000A688242FBD34B685C18844203D1406889
:102AE00018444860084643681C18944209D1084CB1
:102AF000183C2468A24209D052681A4442600A680D
:102B000012680260814200D0086030BD0460F9E7BD
:102B1000700000200648416B096829B1416BC96803
:102B2000C9684968816270474FF0FF31FAE70000D9
:102B30001C00002008484068401C4FF0500080F303
:102B4000118804D0BFF34F8FBFF36F8FFEE7BFF341
:102B50004F8FBFF36F8FFEE7780000202DE9F04123
:102B6000044600F005F994F9455004F1240609E003
:102B7000606A48B1304600F047FD08B100F0C8F97E
:102B80006D1E6DB2002DF3DC4FF0FF3684F845600A
:102B900000F00EF900F0ECF894F9445004F110073D
:102BA00009E0206948B1384600F02EFD08B100F078
:102BB000AFF96D1E6DB2002DF3DC84F84460BDE802
:102BC000F04100F0F5B800002DE9F041054600277E
:102BD00000F0F2F9324E306808B9FFF7D3FE7069A1
:102BE00005424ED1C5B3083568070ED005F0070081
:102BF000C0F108000544680707D0502080F3118811
:102C0000BFF34F8FBFF36F8FFEE72DB37068854220
:102C100037D82348183001460C6801E020460C469E
:102C20006168A94202D221680029F7D131688C423B
:102C300027D007682168016060680837411B1029A8
:102C40000FD96019420708D0502080F31188BFF3D4
:102C50004F8FBFF36F8FFEE713E041606560FFF7B2
:102C600033FF61687068401A7060B268904200D2A9
:102C7000B060706901430020C4E90001F068401CA5
:102C8000F06000F0FBFC780707D0502080F311883B
:102C9000BFF34F8FBFF36F8FFEE73846BDE8F0817B
:102CA0005800002010B5031F4FF080741C601B1FDC
:102CB00021F001011960191F044B0B6014390A60DF
:102CC000091F6FF0020244380A6010BD352B00085E
:102CD000D0E9013201699A60D0E901235A604A685B
:102CE000824201D182684A60002202610868401E67
:102CF0000860086870470000034B036003F154004C
:102D00000860802010607047BC01002000F10801BD
:102D10004FF0FF32C0E90112C16001610021016082
:102D2000704700210161704730B50B685A1C02D012
:102D300000F1080202E0026904E0224654682568B6
:102D40009D42FAD953684B6099608A60516008616E
:102D50000168491C016030BD42684A6093688B601D
:102D600093685960916008610168491C016070476F
:102D7000502080F31188BFF34F8FBFF36F8F0A4944
:102D80004868401C486001280CD10848006810F0D1
:102D9000FF0F07D0502080F31188BFF34F8FBFF390
:102DA0006F8FFEE7704700007800002004ED00E020
:102DB0000849486828B1401E486001D180F3118855
:102DC0007047502080F31188BFF34F8FBFF36F8F90
:102DD000FEE700007800002070B500282AD0164DCC
:102DE000A0F1080460686969084207D1502080F3A7
:102DF0001188BFF34F8FBFF36F8FFEE722683AB1A0
:102E0000502080F31188BFF34F8FBFF36F8FFEE721
:102E10008843606000F0D0F86068696808446860C2
:102E20002046FFF751FE2869401C2861BDE870402C
:102E300000F024BC70BD0000580000204FF0E020DE
:102E400000210161816105494FF47A720968B1FB83
:102E5000F2F1491E4161072101617047180000200D
:102E600010B5FDF7F7F9114910280ED300F1E02055
:102E700090F8F0030A78904207D2502080F311882E
:102E8000BFF34F8FBFF36F8FFEE709480068896873
:102E900000F4E060884207D9502080F31188BFF326
:102EA0004F8FBFF36F8FFEE710BD0000780000204A
:102EB0000CED00E010B5020014D00F48006B38B1E3
:102EC000502080F31188BFF34F8FBFF36F8FFEE761
:102ED00000F072F800211046FFF764FC00F0CEFB12
:102EE000002807D105494FF080500860BFF34F8F8D
:102EF000BFF36F8F10BD00001C00002004ED00E048
:102F000002490A6A0260C968416070471C000020DB
:102F100001490120C86170471C00002010B50C4613
:102F200050B1094909681831FFF7FEFE2046BDE897
:102F300010400121FFF736BC502080F31188BFF309
:102F40004F8FBFF36F8FFEE71C00002010B586B0D7
:102F50000024039405AA04A903A80494FFF7CCFE57
:102F6000DDE903010094CDE9011000230EA1104812
:102F7000059A00F05EFA0F490028C86211D050206F
:102F800080F31188BFF34F8FBFF36F8F4FF0FF3087
:102F9000886201204861CC6006B0BDE8104000F0B6
:102FA00041B806B010BD000049444C450000000087
:102FB000D12900081C0000200248016B491C016354
:102FC000704700001C0000201448016B11B1012162
:102FD000C16170470021C1610169B1FA81F1C1F19C
:102FE0001F0101EB81020E4951F822306BB101EB58
:102FF000820101F108034A6852684A609A4201D18D
:1030000052684A60D16801607047502080F311888F
:10301000BFF34F8FBFF36F8FFEE700001C0000204F
:10302000140700201CB537480168374A914207D180
:10303000502080F31188BFF34F8FBFF36F8FFEE7EF
:1030400000683149491E884207D1502080F3118819
:10305000BFF34F8FBFF36F8FFEE72C4908780190C5
:10306000FF20087008788DF800009DF800009DF89A
:10307000002000F0F000904207D0502080F311882B
:10308000BFF34F8FBFF36F8FFEE79DF80000204C1A
:1030900000F0500020700720A06005E09DF800209F
:1030A00052008DF80020401E9DF800201206F5D435
:1030B000A060032807D0502080F31188BFF34F8F02
:1030C000BFF36F8FFEE74FF44070A0600198087067
:1030D0000C482030016841F470010160016841F042
:1030E00070410160FFF7AAFE00206060FDF77AF8EA
:1030F0000848016841F040410160FDF75FF8002099
:103100001CBD000000ED00E071C20F4100E400E0D2
:103110007800002034EF00E010B5502080F31188D3
:10312000BFF34F8FBFF36F8F00F0BCF918B10449A4
:103130004FF080500860002080F3118810BD00001F
:1031400004ED00E02DE9FF4782B01D468A464FF0AE
:103150000008040003D0BAF1000F08D011E050209D
:1031600080F31188BFF34F8FBFF36F8FFEE7206CA2
:1031700038B1502080F31188BFF34F8FBFF36F8FAA
:10318000FEE7022D0AD1E06B012807D0502080F322
:103190001188BFF34F8FBFF36F8FFEE700F074F914
:1031A0003F4F4FF000094FF0805648B9049838B1AE
:1031B000502080F31188BFF34F8FBFF36F8FFEE76E
:1031C000FFF7D6FDA06BE16B884207D3022D05D037
:1031D0000498D0B1B8F1000F1AD01EE02A4651462B
:1031E0002046FFF77FFB616A19B104F1240000F06B
:1031F0000BFA20B13E60BFF34F8FBFF36F8FFFF725
:10320000D7FD012006B0BDE8F087FFF7D1FD22E031
:103210006846FFF775FE4FF00108FFF7C9FDFFF79D
:10322000CBFEFFF7A5FD94F94400401C01D184F8C2
:10323000449094F94500401C01D184F84590FFF773
:10324000B7FD04A9684600F08DF830B12046FFF7BD
:1032500085FC00F013FA0020D4E7FFF789FDA06B8E
:10326000E16B884213D1FFF7A3FD04F1100004992C
:10327000FFF754FE2046FFF771FC00F0FFF900282D
:103280009ED13E60BFF34F8FBFF36F8F98E7FFF77C
:103290008FFD2046FFF762FC00F0F0F990E7000098
:1032A00004ED00E02DE9F0471F46904689460400F2
:1032B00003D0B9F1000F08D011E0502080F311883D
:1032C000BFF34F8FBFF36F8FFEE7206C38B15020F4
:1032D00080F31188BFF34F8FBFF36F8FFEE7022F8C
:1032E0000AD1E06B012807D0502080F31188BFF38A
:1032F0004F8FBFF36F8FFEE7FFF7B2FD5020EFF364
:10330000118680F31188BFF34F8FBFF36F8FA06BCF
:10331000E16B884206D3022F04D0002086F3118887
:10332000BDE8F08794F94550A06B3A4649462046DF
:10333000FFF7D8FA681C04D06D1C84F845500120B2
:10334000ECE7606A0028FAD004F1240000F05CF990
:103350000028F4D0B8F1000FF1D00121C8F8001016
:10336000EDE700002DE9F0410C46050011D0C4B195
:10337000FFF7FEFC174BDA686E682068911B471C4C
:1033800017D02F681B6A9F4219D0964217D8012484
:1033900010E0502080F31188BFF34F8FBFF36F8F81
:1033A000FEE7502080F31188BFF34F8FBFF36F8F7C
:1033B000FEE70024FFF7FCFC2046BDE8F0818842D0
:1033C00005D9401A20602846FFF79AFDF1E7002052
:1033D0002060DCE71C0000202DE9FF5F8346DDE96B
:1033E0000E87994616468A469000FFF7EDFB0500CA
:1033F0001CD05420FFF7E8FB040014D00020256304
:1034000084F85100CDE90240CDE900874B463246B1
:1034100051465846FFF70CFB2046FFF7FBF9012009
:1034200004B0BDE8F09F2846FFF7D6FC4FF0FF3010
:10343000F6E7F0B585B0DDE90B640A9DA6B1DCB115
:10344000542700972663022684F85160002604AFB3
:10345000CDE90246CDE90057FFF7EAFA2046FFF72B
:10346000D9F9049805B0F0BD502080F31188BFF35E
:103470004F8FBFF36F8FFEE7502080F31188BFF3AB
:103480004F8FBFF36F8FFEE70548416919B1006B9D
:1034900018B10020704701207047022070470000DB
:1034A0001C0000202DE9F0412F4C0026206B28B194
:1034B000A069401CA0613046BDE8F081E5686D1C44
:1034C000E56013D1606B006838B1502080F311883B
:1034D000BFF34F8FBFF36F8FFEE7606BA16B61632C
:1034E000A063206A401C2062FFF714FBA06ADFF88B
:1034F0007C80854209D3606B0068A0B1606BC068B6
:10350000C7687868854211D2A0622068C06A00EB63
:10351000800158F82100012800D90126E06900281F
:10352000C9D00126C7E74FF0FF30EDE7381DFFF7A0
:10353000CFFBB86A18B107F11800FFF7C9FBF96AA9
:103540000120226988401043206101EB810108EBD2
:103550008100391DFFF700FCF86A2168C96A8842BA
:10356000C9D30126C7E700001C0000201407002073
:1035700070B504004FF0000140D0214D286884420E
:1035800007D0502080F31188BFF34F8FBFF36F8FA8
:10359000FEE7A06C38B1401EA064636CE26A9A42F8
:1035A0002CD040B12AE0502080F31188BFF34F8F18
:1035B000BFF36F8FFEE7201DFFF78AFB114A012141
:1035C00050B9E06A00EB800352F8233023B92B692D
:1035D00001FA00F083432B61606CE062C0F10700E8
:1035E000A061E06A2B6981401943296100EB8000EA
:1035F00002EB8000211DFFF7AFFB0121084670BDE3
:103600001C000020140700202DE9F041C068C468A8
:10361000ACB104F118000746FFF75AFB154D286BB3
:103620000126A0B139461448FFF796FBE06A2968E5
:10363000C96A88421CD90120EE61BDE8F0815020A2
:1036400080F31188BFF34F8FBFF36F8FFEE7201D0C
:10365000FFF73EFBE16A2A6906FA01F01043286190
:1036600001EB81000449B43901EB8000211DDBE747
:103670000020E2E71C000020C80700202DE9F047E9
:103680002C4D00242746286B38B1FFF771FB286BBF
:10369000401E2863286B40B146E0502080F311881B
:1036A000BFF34F8FBFF36F8FFEE7A968224E012053
:1036B000D1B3A6F1B40980463068E8B1F068C468B7
:1036C00004F11800FFF704FB201DFFF701FBE06A7F
:1036D0002A6908FA00F11143296100EB800109EB26
:1036E0008100211DFFF738FBE06A2968C96A88421A
:1036F000E2D3C5F81C80DFE70CB1FFF70BFAAC6929
:1037000044B14646FFF7CEFE00B1EE61641EF9D12A
:103710000020A861E86938B1084901273807086026
:10372000BFF34F8FBFF36F8FFFF742FB3846BDE803
:10373000F08700001C000020C807002004ED00E016
:103740000000000000000000010203040607080951
:103750000000000001020304783700080000002088
:10376000840000001C250008FC37000884000020AD
:10377000844700002C250008000000000000000025
:103780000000000001000000100000000000000028
:103790000024F40000000000000000000000000011
:1037A0000000000000000000000000000000000019
:1037B0000000000000000000000000000000000009
:1037C00000000000000000000000000000000000F9
:1037D00000000000000000000000000000000000E9
:1037E00000000000000000000000000000000000D9
:0C37F00000000000AAAAAAAA0000000025
:040000050800018965
:00000001FF
