:020000040800F2
:10000000704E0020F1020008232900085F25000837
:100010002129000801080008E9420008000000004A
:100020000000000000000000000000003102000895
:1000300059090008000000008D0200083D29000851
:100040000B0300080B0300080B0300080B03000858
:100050000B0300080B0300085B0900080B030008F2
:100060000B0300080B0300080B0300080B03000838
:100070000B0300080B0300080B0300080B03000828
:100080000B0300080B0300080B0300080B03000818
:100090000B0300080B0300080B0300080B03000808
:1000A0000B0300080B0300080B0300080B030008F8
:1000B0000B0300080B0300080B0300080B030008E8
:1000C0000B0300080B0300080B0300080B030008D8
:1000D0000B0300080B0300080B0300080B030008C8
:1000E0000B0300080B0300080B0300080B030008B8
:1000F0000B0300080B0300080B0300080B030008A8
:100100000B0300080B0300080B0300080B03000897
:100110000B0300080B0300080B0300080B03000887
:100120000B0300080B0300080B0300080B03000877
:100130000B0300080B0300080B0300080B03000867
:100140000B0300080B0300080B0300082529000817
:100150000B0300080B0300080B0300080B03000847
:100160000B0300080B0300080B0300080B03000837
:100170000B0300080B0300080B030008000000003D
:100180000B0300080B03000800F002F800F040F831
:100190000AA090E8000C82448344AAF10107DA45E2
:1001A00001D100F035F8AFF2090EBAE80F0013F0F4
:1001B000010F18BFFB1A43F00103184790580000C5
:1001C000B0580000103A24BF78C878C1FAD8520756
:1001D00024BF30C830C144BF04680C6070470000C1
:1001E0000023002400250026103A28BF78C1FBD840
:1001F000520728BF30C148BF0B6070471FB505F0DC
:10020000E1FB9DE8030000F01DFA1FBD10B510BD15
:1002100000F074FA1146FFF7F1FF04F07DF800F0EA
:1002200092FA03B4FFF7F2FF03BC00F0C3FA000038
:100230002C4B19680868B0E8F04F80F30988BFF3C9
:100240006F8F4FF0000080F31188704700000000AE
:1002500008480068006880F308884FF0000080F3C9
:10026000148862B661B6BFF34F8FBFF36F8F00DFA4
:1002700000BF00BF08ED00E0DFF80C00016841F4AA
:1002800070010160704700BF88ED00E0EFF3098066
:10029000BFF36F8F134B1A681EF0100F08BF20EDCD
:1002A000108A20E9F04F106009B44FF0500080F33D
:1002B0001188BFF34F8FBFF36F8F04F045FE4FF0EF
:1002C000000080F3118809BC19680868B0E8F04F95
:1002D0001EF0100F08BFB0EC108A80F30988BFF33E
:1002E0006F8F704724000020EFF3058070470000F7
:1002F0000948804709480047FEE7FEE7FEE7FEE7BA
:10030000FEE7FEE7FEE7FEE7FEE7FEE704480549F5
:10031000054A064B70470000ED29000889010008D6
:1003200070480020704E0020704A0020704A002063
:1003300070B5064600F06AF9056806F10B0020F07A
:100340000704B4429CBF002070BD2B466A68BAB156
:100350001068A04210D304F1080188423CBF5068E5
:10036000586007D35168101941601168091B01607A
:1003700058601460101D70BD13465268002AE7D102
:100380002146284600F04AF90028DED170BD70B53C
:100390000446051F00F03AF90068002C14BF4468B9
:1003A00070BD002C18BFAC423CBF20466468F8D337
:1003B00001680A18AA4218BF456003D12A68054699
:1003C0001144016028684119A1421CBF6C6070BDD6
:1003D0006168696021680844286070BD53EA020CB6
:1003E00000F069802DE9F04B4FF00006002B1FBF95
:1003F000B3FA83F503FA05F424FA05F65E4012BF5A
:100400001643B2FA82F502FA05F4C5F120051EBFC3
:1004100022FA05FC44EA0C04203556EA044C4FEA63
:10042000144418BF641C4FF000084FF000099042BC
:1004300071EB030C39D3002919BFB1FA81F701FA26
:1004400007F6B0FA80F700FA07F6C7F120071EBFDB
:1004500020FA07FC46EA0C062037B6FBF4FCA7EBB3
:100460000507103F07F01F0BCBF120060CFA0BFB22
:100470002CFA06F644BFB3460026202FA4BF5E46E2
:100480004FF0000B5BEA060C08BF4FF0010B19EBB5
:100490000B09ABFB027C48EB0608C01B06FB02CC39
:1004A0000BFB03CC71EB0C01C1E70B460246414646
:1004B0004846BDE8F08B13B54FF000004FF0000147
:1004C000AFF30080BDE81C407047032A40F2308043
:1004D00010F0030C00F0158011F8013BBCF1020F85
:1004E000624498BF11F801CB00F8013B38BF11F806
:1004F000013BA2F1040298BF00F801CB38BF00F81D
:10050000013B11F0030300F02580083AC0F0088099
:1005100051F8043B083A51F804CBA0E80810F5E77D
:10052000121D5CBF51F8043B40F8043BAFF3008060
:10053000D20724BF11F8013B11F801CB48BF11F8D5
:10054000012B24BF00F8013B00F801CB48BF00F8A5
:10055000012B704710B5203AC0F00B80B1E818505D
:10056000203AA0E81850B1E81850A0E81850BFF49D
:10057000F5AF5FEA027C24BFB1E81850A0E818503C
:1005800044BF18C918C0BDE810405FEA827C24BF90
:1005900051F8043B40F8043B08BF7047D20728BF1E
:1005A00031F8023B48BF11F8012B28BF20F8023B6D
:1005B00048BF00F8012B70474FF0000200B513460A
:1005C00094469646203922BFA0E80C50A0E80C5073
:1005D000B1F12001BFF4F7AF090728BFA0E80C5024
:1005E00048BF0CC05DF804EB890028BF40F8042B1D
:1005F00008BF704748BF20F8022B11F0804F18BF8A
:1006000000F8012B704770477047704700487047EB
:1006100018480020704770477047704738B5044647
:100620000A4600206946AFF30080002808BF38BDA5
:1006300002460099204600F03FF8012038BD012015
:1006400000F054B8F8B5AFF30080054600200C4622
:10065000102000BF0646A819A0420DD932466946AF
:100660000020AFF30080070008BF00F03FF80098BB
:10067000A04218BF0546C419FFF7C8FF056007462A
:10068000F01D20F007004619284600F00AF8B44291
:1006900008BFF8BDA21B31463868BDE8F84000F03D
:1006A0000BB800210160C0E90110704710207047AD
:1006B0000048704710480020034640688C460028D8
:1006C00018BF88423CBF03464068F8D318681844F6
:1006D000884207D00CF1030020F00700001D411AEA
:1006E000521A0146081D0A60FFF751BE10B500F00E
:1006F00039F8BDE8104000F02FB870477546FFF795
:10070000D7FFAE4605006946534620F007008546F0
:1007100018B020B5FFF7FAFDBDE820404FF0000605
:100720004FF000074FF000084FF0000B21F00701D9
:10073000AC46ACE8C009ACE8C009ACE8C009ACE81C
:10074000C0098D46704710B50446AFF300802046BF
:10075000BDE81040FFF765BD002801D000F02AB8C1
:100760007047000010B5012805D0002103A000F05B
:1007700027F8012010BD09A1F8E7000053494752AE
:10078000544D454D3A204F7574206F662068656161
:1007900070206D656D6F7279000000003A20486529
:1007A0006170206D656D6F727920636F7272757004
:1007B0007465640001491820ABBEFEE72600020004
:1007C00070B505460C460A2000E06D1C00F011F8DB
:1007D00035B128780028F8D102E0641C00F009F84F
:1007E00014B120780028F8D1BDE870400A20AFF39A
:1007F000008008B569468DF800000320ABBE08BD37
:10080000FEE770B50546D0F87C030426C46994F869
:100810004E0003281AD0042820D1217B284602F05C
:1008200086FE01281AD1217B284602F06BFEA16AC0
:10083000814214D0628B824211D2091AA162216ACC
:1008400008442062032084F84E000EE0237B628B74
:100850002846216A02F074F984F84E6070BD0020C9
:1008600084F84E00284602F0CFFAC5F8E06331461E
:10087000D5F8D803BDE87040002203F0CDBE0000DB
:10088000F8B50546D0F87C030127C46994F84D00FB
:1008900001280ED002281AD1617B284602F047FEBB
:1008A0000426012814D0022811D100BF84F84D700D
:1008B00020E0228B606A0097637B904200D882B26E
:1008C0002846E16902F04CF9022084F84D00F8BD99
:1008D000208B616A0022814206D9091A6162E369AC
:1008E0001844E061E2D100E0626284F84D202846BD
:1008F00002F08DFAC5F8E0633146D5F8D803BDE8BB
:10090000F840002203F088BE10B500224FEA020131
:1009100000EB8203521CC3F88413102AF8D3002280
:100920004FF400738418521C84F81C119A42F9D3B6
:100930000170417001228270C0F8C4130276402316
:100940008371417680F81C1380F81D2380F81F13F3
:1009500080F81E13002010BD7047012000F022B85F
:1009600072B6FEE7A1220274212242740022428262
:1009700082820722C28202F06EBA000070B504467D
:1009800000F01EF90546601C02D0044800780444BB
:1009900000F016F9401BA042FAD370BD14000020ED
:1009A00070470000044910B50A68024202D008608E
:1009B000FFF7F6FF10BD0000143C01402DE9F84F91
:1009C000DFF8BCA10022012503264FF00F090AF130
:1009D000040BAAF1040E00BF0B6805FA02F42340D1
:1009E000A34270D10F7907F00307012F01D0022F26
:1009F00016D187684FEA420806FA08FC27EA0C0776
:100A0000D1F80CC00CFA08FC4CEA070CC0F808C07E
:100A10004768A7430C79C4F3001494403C434460F6
:100A20000C79E443A4070AD0C4684FEA420C06FAE2
:100A30000CF7BC438F6807FA0CF72743C7600C79A3
:100A400004F00304022C12D1D40800EB840CDCF86F
:100A500020405707FF0E09FA07F824EA0804D1F8E6
:100A6000108008FA07F848EA0408CCF820800468E7
:100A70004FEA420C06FA0CF7BC430F7907F0030764
:100A800007FA0CF7274307604C6814F4403F70D016
:100A90003C4C276847F480472760246822F003070E
:100AA00004F480440094384C07EB040CDCF808484C
:100AB00097074FEA177809FA08F7BC43334FB84253
:100AC00002D1002724E054E0314FB84201D1012780
:100AD0001EE0304FB84201D1022719E02E4FB84234
:100AE00001D1032714E02D4FB84201D104270FE0B4
:100AF0002B4FB84201D105270AE02A4FB84201D155
:100B0000062705E0284FB84201D1072700E0082753
:100B100007FA08F72743CCF80878DAF80040574678
:100B2000D1F804C09C435FEACC2C00D51C433C6048
:100B3000DBF800405F46D1F804C09C435FEA8C2C90
:100B400000D51C433C60DEF800407746D1F804C075
:100B50009C435FEA8C3C00D51C433C60084F083F37
:100B60003C68D1F804C09C435FEACC3C00D51C43F0
:100B70003C60521C102AFFF42FAFBDE8F88F000034
:100B8000083C01404438024000300140000002406F
:100B90000004024000080240000C02400010024025
:100BA0000014024000180240001C02400069084086
:100BB00000D0012070470AB1816170470904FBE74A
:100BC000014880687047000014000020D0F800033E
:100BD00002F05BBCD0F8000302F068BC006803F0D0
:100BE000A1B8006803F0A2B801EB410202EBC10119
:100BF00000EB810090F86000704701EB410202EBCE
:100C0000C10100EB8100006D704710B5044690F8FB
:100C1000F802012809D0012084F8F802206803F0C6
:100C200090F8002084F8F80210BD022010BD2DE9D4
:100C3000FE430546DDE90B7095F8F842DDF828C063
:100C4000012C1ED001EB410404EBC1044FF001095B
:100C500005EB840485F8F892002684F83D6084F85A
:100C60003830A4F8400084F8391084F83F7002F05E
:100C70007F0884F83A805FEA026805D584F83B90E3
:100C800004E00220BDE8FE8384F83B6084F83CC0A9
:100C9000CDF800C0CDE90170286803F0B5F885F8FB
:100CA000F862EFE7D0F8000302F07CBC2DE9F00316
:100CB00001EB4104DDE906C9DDE9087504EBC10477
:100CC00000EB8404022684F83B2084F83F30BCF11A
:100CD000000F0AD084F8426000256BB1012B2FD0A1
:100CE000022B12D0032B16D10FE04FF0030884F82B
:100CF000428084F83D50EFE7BCF1010F0BD152B9AF
:100D0000DFB9012284F8552003E0B2B194F85420F1
:100D1000B2B184F84260C4F84490E76484F860504B
:100D2000256584F8391084F86150027C04F138019B
:100D30000068BDE8F00303F0F0B894F85520E7E749
:100D400084F84250E7E72DE9F04106680446304652
:100D500002F0F3FF012875D1206803F002FA0028A1
:100D600070D0206803F0FDF9800203D521684FF4AC
:100D700000104861206803F0F4F9C00203D521682F
:100D80004FF480104861206803F0EBF9400103D56F
:100D900021684FF080604861206803F0E2F9800725
:100DA00002D5216802204861206803F0DAF980004A
:100DB00015D521684FF000504861D6F84004C007AF
:100DC0000DD11021304602F08DFF304602F06CFF4D
:100DD0000121206803F0AAF92046FFF7FBFE2068F6
:100DE00003F0BFF9C00102D5204601F028FB2068BE
:100DF00003F0B7F9000705D5204600F0D0F82168C8
:100E000008204861206803F0ACF9C043C0060CD448
:100E10002068816921F010018161204601F059FBB1
:100E20002068816941F010018161206803F099F91F
:100E3000800123D5206803F06CF8074600254FF0A9
:100E4000010814E01AE005F00F0108FA01F0384239
:100E50000CD006EB4510D0F80005E9B2000420469E
:100E600002D501F0E9F801E001F0DBF96D1CA068A2
:100E7000A842E8D821684FF000704861BDE8F081D1
:100E800070B58AB0040005D094F8F90225680026F0
:100E900018B107E001200AB070BD84F8F86220465E
:100EA00000F028F8032084F8F902E86BC00500D4AC
:100EB0002661206802F0C4FE04F1100128220D46CC
:100EC0006846FFF747FB94E80F0002F05FFE012140
:100ED000206803F082F9282229466846FFF73AFB8A
:100EE00094E80F0003F0BAF8012084F8F90200201A
:100EF000D1E7000030B587B0044614216846FFF7FB
:100F00005BFB2068B0F1A04F38D11D480024016878
:100F100041F00101016000681A4D00F001000590E8
:100F20004FF40070CDE90004694628460294FFF7AB
:100F300045FD4FF4E05000900220CDE901040A2065
:100F4000CDE9034069462846FFF738FD0C48001DEF
:100F5000016841F08001016009481430016841F4E2
:100F6000804101600068002200F480400590052166
:100F7000432000F0B7FB432000F0A6FB07B030BDD4
:100F80003038024000000240D0F8000302F023BBDA
:100F9000D0F8000302F023BB006803F005B9D0F8D5
:100FA000000302F0C8BA10B5044690F8F802012810
:100FB0000DD0012084F8F8020121206802F058FECB
:100FC000206802F06BFE002084F8F80210BD0220B9
:100FD00010BD10B5044690F8F802012809D0012090
:100FE00084F8F802206803F026F9002084F8F8025B
:100FF00010BD022010BD000070B5040025D094F88B
:101000003D00002520B984F83C50204600F0B8F897
:10101000242084F83D002068016821F0010101606E
:101020002068016841F4004101602068016821F4F2
:101030000041016000F0EEFC4D4A6168914201D828
:101040004C4900E04C49884201D2012070BD4B4917
:101050002368B0FBF1F15E6826F03F060E435E6048
:101060006368934206D94FF4967359434FF47A73E9
:10107000B1FBF3F12368491C1E6A26F03F06314399
:1010800019626168914210D84900401EB0FBF1F22C
:10109000521CC2F30B02042A01D2042022E0B0FB4E
:1010A000F1F0401CC0F30B001CE0A268F2B301EBAE
:1010B000C10303EB0116431EB3FBF6F35B1C43F4C1
:1010C00080431B0549D092B301EBC10202EB011131
:1010D000401EB0FBF1F0401CC0F30B0040F4804018
:1010E00040F400402168CA694CF6FF739A431043EC
:1010F000C861D4E9071001432068026822F0C002E9
:1011000011430160D4E9030101432068826848F279
:10111000FF339A4311438160D4E9050108432168F4
:10112000CA6822F0FF021043C86001E00EE016E03A
:101130002068016841F0010101602564202084F8E5
:101140003D00256384F83E50002070BD01EB410650
:10115000431EB3FBF6F35B1CB3E70120C2E701EBD0
:101160004101401EB0FBF1F0401CC0F30B00B7E79B
:10117000A086010080841E0000093D0040420F004F
:1011800010B586B0044614216846FFF715FA1449D5
:101190002068884221D113480021026842F00202EF
:1011A0000260006800F0020005904FF4107000909B
:1011B000122001900120CDE902010420049069462B
:1011C0000948FFF7FBFB07481030016841F40011A4
:1011D0000160006800F40010059006B010BD00002A
:1011E0000054004030380240000402402DE9FF4125
:1011F00004460068816800917749784E4FF0402797
:10120000884201D1324600E03A4692680192406835
:101210008846029001D1304600E03846406803908D
:1012200060684FF00105B0F5007F1CD0D8B1900781
:1012300005D50398000602D5204601F0C1F90098B3
:10124000C0070FD0029840067FD521682046CA68A3
:10125000E16A8B1CE3620A80618E491E6186618EA1
:10126000002967D071E00098800719D50298000620
:1012700016D5616A20468A1C626222680988D1609C
:10128000618D491E6185618D51B901684A6822F0FE
:10129000A0024A60418E19B980F8415000F0A0F8D0
:1012A0000198C00705D00398400602D5204601F0FA
:1012B00057F90198400622D5039880061FD521686A
:1012C000414501D1304600E03846406820F06001D9
:1012D00001D1304600E0384641602068416821F085
:1012E000A00141602068C1688068019084F8415085
:1012F000606C40F002006064204600F072F80098D4
:10130000000767D50298800664D52068416821F0FF
:10131000A00141602168414501D1304600E03846D6
:10132000406820F0600000D03E4670602068806811
:10133000009043E001684A6822F060024A60418DF3
:1013400019B980F8415000F04BF8009840061ED5BE
:10135000029880061BD52068416821F06001416039
:101360002168414501D1304600E03846406820F010
:10137000A00101D1304600E03846416084F8415078
:10138000606C40F002006064204600F02AF801988A
:1013900000071FD5039880061CD52168414501D15F
:1013A000304600E03846406820F0A00000D03E46BD
:1013B00070602068416821F06001416084F841500C
:1013C000606C40F00400606404B02046BDE8F04169
:1013D00000F007B8BDE8FF8100380040003400404D
:1013E000704770472DE9F047040005D094F841009C
:1013F0004FF0000818B109E00120BDE8F08784F83B
:10140000408051486063204600F0A6F8022684F828
:1014100041602068C16940F6BF77B943C161206867
:10142000066260694FF4007902282FD0E06870B13D
:101430002025A068202800D86D00012000F084F944
:10144000216949451FD1E16819B1A90002E01025C1
:10145000EFE7E900B0FBF1F000EB800061694000CC
:10146000B0FBF1F0401D0A21B0FBF1F000F00101EA
:10147000401A40080902821EFE2A09D3606C40F01F
:1014800010006064B8E7B0FBF5F0E5E7022000214A
:1014900022690843024320680262D4E9010108433B
:1014A000A269E168114308432168CA69BA4310433D
:1014B00040F40060C861206A01283AD12348606383
:1014C00023482168234A4FF04023814201D111462D
:1014D00000E01946C96921EA070101D1154600E07B
:1014E0001D46E9612168814201D1114600E019469B
:1014F0000E622568854201D1114600E01946C9698E
:101500008EB2616849451BD0D1B100212789B4F85A
:101510000CC047EA0C07B4F818C04CEA010C47EAC3
:101520000C07B9B2314341F40061854200D01A463C
:10153000D161C4F84480012084F8410000205CE7B8
:101540004FF48071E2E7000021260008ED11000849
:10155000003800400034004070B58AB005461421C0
:101560006846FFF729F80024059406940794089428
:101570002149286888423CD101200590C0200225DD
:10158000CDE9060505A800F00DF908B1FFF7E8F967
:101590001A48016841F400410160006800F400400D
:1015A000099016481038016841F001010160016896
:1015B00001F001010991016841F004010160006836
:1015C000062600F00400099010200090CDE9015497
:1015D000CDE9034669460A48FFF7F0F94FF4A450F5
:1015E0000090CDE90154CDE9034669460548FFF76F
:1015F000E5F90AB070BD0000003C004040380240F0
:1016000000000240000802407047704702488168AD
:101610000278114481607047140000200B4810B517
:10162000016841F400710160016841F4806101606A
:10163000016841F480710160032000F073F80F200D
:1016400000F006F800F024F8002010BD003C024035
:1016500070B50D4D04464FF47A712878B1FBF0F067
:101660000A490968B1FBF0F000F06CFC48B9102C95
:1016700007D200222146501E00F034F800206C6092
:1016800070BD012070BD000014000020200000206B
:101690000C4882B0016841F480410160006800F4A8
:1016A000804000900748001F016841F080510160B0
:1016B0000068002200F0805000900F21901E02B0C0
:1016C00000F010B844380240002809DB00F01F0287
:1016D000012191404009800000F1E020C0F8001194
:1016E00070470000F0B40E4B1B680C46C3F3022396
:1016F000C3F10705042D00D90425191D072901D2BE
:10170000002300E0DB1E012606FA05F1491E2140F8
:1017100099409E40761E16403143F0BC02F0E5BD74
:101720000CED00E0064900F0070208684FF6FF03E1
:10173000184040EA0220034A104308607047000046
:101740000CED00E00000FA0501460020012907D158
:101750001049096811F4000103D0012900D10E4895
:1017600070470C48001F01680068490200F03F0004
:1017700001D50A4900E00A49064AB1FBF0F07C3283
:101780001168C1F3881141431068C0F30270B1FBC6
:10179000F0F07047083802400080BB0000127A0069
:1017A0000024F4002DE9F843054600684FF00109D4
:1017B000C1074FF0000601D1400727D5DFF80C81A3
:1017C000C8F86860FFF7FCF90746414C05E000BF28
:1017D000FFF7F6F9C01B022857D820680001F7D49C
:1017E00068688101287A41EA0070394984310860CB
:1017F000C8F86890FFF7E4F9074604E0FFF7E0F95E
:10180000C01B022841D820680001F7D5287880073E
:1018100052D52F484030016841F080510160006886
:101820002C4C00F080500090206840F480702060C4
:10183000FFF7C6F9074604E0FFF7C2F9C01B02280C
:1018400023D82068C005F7D5214C7034206810F4E7
:10185000407020D0A98901F4407181421BD02068DA
:101860001D4920F44070C1F800900E60206020688F
:10187000C00710D0FFF7A4F9064641F2883707E009
:10188000FFF79EF9801BB84202D90320BDE8F88318
:1018900020688007F4D5E9680D48C1F301220830BB
:1018A000032A0BD0016821F4F81101602068A9898E
:1018B000C1F30B01084320600020E7E70268074BF3
:1018C00022F4F81219400A430260EFE70000474291
:1018D0000038024000700040400E4742FFFCFF0FFE
:1018E0002DE9F0470E46050065D0DFF81481D8F8E1
:1018F0000000F7B200F00700B04207D288F800708D
:10190000D8F8000000F00700B04254D128683D4CE0
:10191000810712D5400703D5206840F4E0502060CD
:101920002878000703D5206840F4604020602068D4
:10193000A96820F0F000084320602878C0072DD067
:10194000304968680839012812D0022813D00328CA
:1019500011D00968890700292DDA216821F00301D7
:1019600001432160FFF72CF9814641F2883A0EE0ED
:1019700009688903EFE709688901ECE7FFF720F9B7
:10198000A0EB0901514502D90320BDE8F08720688A
:10199000696800F00C00B0EB810FEFD1D8F80010AF
:1019A000404601F00701B14207D90770006800F016
:1019B0000700B04201D00120E7E72878400705D5AD
:1019C0002068E96820F4E050084320602878000788
:1019D00006D52068296920F4604040EAC1002060F3
:1019E00000F038F82168084AC1F30311515CC8407F
:1019F0000649086006480068FFF72AFE0020C4E791
:101A0000003C024008380240EC5900082000002049
:101A1000180000200448054900680968044AC1F319
:101A20008221515CC84070472000002008380240E5
:101A3000FC5900080448054900680968044AC1F3D4
:101A40004231515CC84070472000002008380240F5
:101A5000FC590008154810B5006810F00C02144835
:101A600013D04110042A0FD0082A0ED10F4C241F86
:101A70002268236802F03F025B0207D52068C0F3AA
:101A80008810A0FB010106E0084610BD2168C1F3E3
:101A90008811A1FB00010023FEF7A0FC2168C1F31F
:101AA0000141491C4900B0FBF1F010BD083802406B
:101AB0000024F4002DE9F84F04006ED02078DFF800
:101AC0004C93C007A9F104054AD009F1040001684C
:101AD000C1F38101012908D00068C0F38100022808
:101AE0000AD1D9F80000400206D52868800337D50E
:101AF00060680028E1D033E06068B0F5803F10D026
:101B0000B0F5A02F286810D020F480302860286815
:101B100020F4802028606068A8B1FFF751F80646DD
:101B20000DE0286840F48030F4E740F4802028601D
:101B3000F7E700BFFFF744F8801B642873D82868D4
:101B40008003F7D50CE0FFF73BF8064605E000BF41
:101B5000FFF736F8801B6428F0D828688003F7D494
:101B60002078DFF8AC8280074FF0000A3ED5A74806
:101B7000001D016811F00C0F08D00068C0F381004F
:101B800002280BD1D9F80000400207D4286880074A
:101B900016D5E068012800D112E033E1E068B8B161
:101BA0000120C8F80000FFF70BF8064605E000BF6B
:101BB000FFF706F8801B0228C0D828688007F7D5F1
:101BC0002868216920F0F80040EAC10028600DE093
:101BD000C8F800A0FEF7F4FF064604E0FEF7F0FFA9
:101BE000801B02281FD828688007F7D420780007B8
:101BF00022D5864F87486169703771B10121016034
:101C0000FEF7DEFF064604E0FEF7DAFF801B02283F
:101C100009D838688007F7D50EE0C0F800A0FEF7B5
:101C2000CFFF064605E082E0FEF7CAFF801B0228D0
:101C30007DD838688007F7D42078400768D5DFF86A
:101C4000CCB100270BF13C0BDBF80000C0000BD43B
:101C5000DBF8001041F08051CBF80010DBF80000F9
:101C6000012700F0805000906B4E3068C00510D402
:101C7000306840F480703060FEF7A2FF009005E00D
:101C8000FEF79EFF0099401A022850D83068C00520
:101C9000F6D55E4EA0686C3601280FD00528306856
:101CA00010D020F001003060306820F00400306077
:101CB000A068B8B1FEF784FF00900FE0306840F0F4
:101CC0000100F4E740F004003060F7E7FEF778FF2A
:101CD0000099411A41F28830814266D83068800705
:101CE000F4D50EE0FEF76CFF009007E0FEF768FF0A
:101CF0000099411A41F28830814256D830688007F5
:101D0000F4D42FB1DBF8001021F08051CBF8001093
:101D1000A069C8B33D49091D0968C1F381010229C1
:101D20004AD00228504607D0C8F8600000E03CE0E6
:101D3000FEF746FF04463BE04746C8F86000FEF762
:101D40003FFF064605E000BFFEF73AFF801B022872
:101D50002BD828688001F7D4D4E907010843A16A89
:101D60002E4A490802EB0141626A41EA82110843A6
:101D700094F82C1040EA0161C9F80010012038667F
:101D8000FEF71EFF044606E03EE000BFFEF718FF28
:101D9000001B022809D828688001F7D534E000BF6D
:101DA000FEF70EFF001B022802D90320BDE8F88FC2
:101DB00028688001F4D427E00128F7D0D9F8000082
:101DC000E26900F4800191421CD1226A00F03F01D7
:101DD000914217D147F6C071626A0140B1EB821F90
:101DE00010D1A26A4FF0FF3300F4403103EB5202EE
:101DF000B1EB024F06D194F82C1000F07060B0EBFC
:101E0000016F01D00120D1E70020CFE70438024064
:101E100000004742800E4742007000400000FFFF74
:101E200070B5040009D0606A002540B12561656184
:101E3000A56294F8510040B10CE0012070BD6068CB
:101E4000B0F5827FF4D0E561F2E784F85050204687
:101E500000F044F8022084F851002068016821F065
:101E600040010160A088218900F4827001F40441DE
:101E70000843A18901F400610843217C01F00201BB
:101E80000843217D01F001010843218B01F4007119
:101E90000843217F01F03801084394F8201001F035
:101EA00080010843218D01F4005108432168086036
:101EB000A069042101EA104094F8241001F01001F7
:101EC0000843216848602068C16921F40061C1614C
:101ED0006565012084F85100002070BD10B586B002
:101EE000044614216846FEF767FB134920688842C0
:101EF0001FD112480021026842F48052026000683B
:101F000000F4805005900D481438026842F0010238
:101F10000260006800F001000590E02000900220BF
:101F2000CDE901010520CDE9031069460448FEF71B
:101F300045FD06B010BD00000030014044380240AD
:101F40000000024010B5401EB0F1807F01D3012097
:101F500010BD4FF0E02460610F21601702F0C5F959
:101F60000020A06107202061002010BD70B5040092
:101F700004D094F83D00002510B106E0012070BDAA
:101F800084F83C50204600F023F8242084F83D00DB
:101F90002068C16821F40051C160204600F02EFD88
:101FA0002068016921F4904101612068416921F0B4
:101FB0002A0141612068C16841F40051C160256473
:101FC000202084F83D0084F83E00002070BD000011
:101FD00010B586B0044614216846FEF7EDFA1349A1
:101FE0002068884220D112480021026842F4003261
:101FF0000260006800F4003005900D481038026857
:1020000042F001020260006800F0010005900C201F
:1020100000900220CDE901010320039007200490E5
:1020200069460448FEF7CAFC06B010BD00440040F3
:1020300040380240000002402DE9F04707460068A2
:102040000D4600EB4116D6F8080501EB41034207A7
:1020500003EBC5014FF006004FF004084FF0050AEE
:1020600007EB810401D541463CE0D6F80815C905C7
:1020700007D54FF48070C6F80805072084F8610082
:102080001CE0D6F80815890603D52020C6F80805F7
:1020900018E0D6F808150A074FF0080104D5C6F86D
:1020A000081584F861A009E0D6F80825520514D572
:1020B0004FF48060C6F8080584F861102946386836
:1020C00001F03FFED6F8080580050ED52946386890
:1020D00001F037FE4FF40070A0E0D6F808150906AD
:1020E000F0D58021C6F80815C8E7D6F808054FF0E6
:1020F0000001C0074FF010094FF001023BD03869D2
:1021000030B1A06CD6F81035C3F31203C01A2065A5
:1021100084F86120E165C6F8082594F83F0030B1E5
:10212000022804D0032809D0012807D012E029464C
:10213000386801F006FEC6F808950BE0D6F80005F1
:1021400040F00050C6F8000584F860202946384663
:10215000FEF7A8FD3869012806D1B4F84010A06C3C
:10216000B0FBF1F0C00704D014F8540F80F0010068
:102170002070BDE8F087D6F80805800735D594F8BB
:102180006100022301280AD005280BD006280CD0B4
:1021900008280AD003280FD0072818D01CE084F89C
:1021A000602019E084F860A016E0E06D401CE06556
:1021B000022801D9E1650DE084F86030D6F8000509
:1021C00020F0804040F00040C6F8000504E0E06DDB
:1021D000401CE06584F86080C6F8083594F86020FB
:1021E00029463846FEF75EFDC3E7D6F80805C00667
:1021F000BFD594F83F00032803D020B1022802D0B5
:102200000BE0E16505E0E165386930B9032084F849
:1022100061002946386801F094FD4846C6F8080573
:10222000A7E72DE9F047026802EB4114D4F808252E
:1022300001EB4103550703EBC1034FF004024FF0DC
:10224000060A00EB830304D5C4F8082583F861A0CF
:1022500051E0D4F808554FF00007AD064FF0020CDE
:102260000BD52022C4F8082593F83D20012A33D14C
:1022700083F83D7083F860C03DE0D4F80855AD05A3
:1022800004D54FF40072C4F8082534E0D4F808559A
:102290004FF001065FEAC5784FF040050DD0DF65CD
:1022A000D4F80825520603D583F83D60C4F80855D4
:1022B000C4F8086583F861601DE0D4F808855FEA1A
:1022C00048680BD583F8612083F83D60DF650068BE
:1022D00001F037FDC4F80855BDE8F087D4F808557B
:1022E0004FF008095FEA05784FF0050508D5C4F8F6
:1022F000089583F861500068BDE8F04701F021BD02
:10230000D4F808855FEAC86810D50322DF6583F832
:10231000612093F83D2022B993F83C200AB983F854
:102320003D60006801F00DFD10201AE0D4F808852A
:102330005FEA086818D5056955B1DD6D6D1CDD656E
:10234000022D0BD9DF6583F86020FEF7ABFC07E0B8
:1023500083F861A0006801F0F4FC01E083F860C03C
:102360008020C4F80805B7E7D4F808855FEA485824
:1023700007D583F86190006801F0E3FC4FF48060BA
:10238000EFE7D4F808855FEA8878A5D593F86180EF
:10239000B8F1010F0FD0B8F1030F30D0B8F1040F2E
:1023A0002DD0B8F1050F2DD0B8F1060F2DD0B8F112
:1023B000080F2AD03CE083F8606093F83F20022A9F
:1023C00001D0032A34D102692AB993F8552082F04A
:1023D000010283F855200269012A29D1DA6C3AB347
:1023E000B3F840502A44521EB2FBF5F2D2071FD078
:1023F00093F8552082F0010283F8552018E083F805
:1024000060C015E083F8605012E0DD6D6D1CDD6585
:10241000022D03D9DF6583F8602009E083F860C0EE
:10242000D4F8002522F0804242F00042C4F8002592
:10243000C4F808C593F86020FEF734FC4CE77CB57F
:1024400004680546D4F840040190D4F8400420F014
:102450002E0000900198800709D50198C00702D08E
:102460002846FEF7B3FB009840F002000090019868
:10247000000724D5009840F008000090019840071C
:102480001AD5A869022803D0E86801280CD00FE00B
:102490000198C0F341400228286803D0012101F0CF
:1024A00045FE05E00221FAE74EF66020C4F8040478
:1024B0002846FEF76DFD02E02846FEF765FD01980F
:1024C0008006009802D540F020000090C4F8400437
:1024D0007CBD2DE9F041024600680646016AC1F361
:1024E000434301F00F07C1F30A15022B31D1002D30
:1024F0002FD007EB470101EBC70102EB8104616CB0
:10250000002926D0226DE36C2A449A4223D82A4619
:1025100001F02BFE606C28446064206D2844206527
:1025200006EB4710D0F81015B4F84020C1F3C941AC
:10253000AA420ED100290CD0D0F8001521F080411C
:1025400041F00041C0F8001514F8540F80F001006C
:102550002070BDE8F081042084F86000F9E7FEE710
:1025600070B515490268154B4FF040248A4201D1DD
:102570001A4600E02246D568C26A961CC6621580DB
:10258000428E521E4286428E002A14D102688A422E
:1025900001D1194600E02146496821F0600100D0D0
:1025A00023465960418D002905D14FF0010180F883
:1025B0004110FEF715FF70BD0038004000340040A8
:1025C00070B5416A144B8A1C426205680988134A37
:1025D0004FF040249D4201D1154600E02546E960B8
:1025E000418D491E4185418D002914D101689942D0
:1025F00001D1114600E02146496821F0A00100D038
:1026000022465160418E002905D14FF0010180F82A
:102610004110FEF7E5FE70BD003800400034004078
:102620007CB5016804468868009094F84100012553
:10263000042834D10098C00718D04868C043400629
:1026400014D4C9682046E26A1180E16A891CE162FB
:10265000618E491E6186618E41B901684A6822F027
:1026600060024A6080F84150FEF7CEFF00984006B5
:1026700015D520684168C943890610D4416821F006
:10268000600141602068C1688068019084F8415011
:10269000606C40F0020060642046FEF7A2FE94F8F1
:1026A0004100032834D10098800719D52168486873
:1026B000C043000614D4626A20461288CA60616A68
:1026C000891C6162618D491E6185618D41B9016816
:1026D0004A6822F0A0024A6080F84150FEF795FF58
:1026E0000098000714D520684168C94389060FD4B3
:1026F000416821F0A001416020688068009084F862
:102700004150606C40F0040060642046FEF769FEB2
:102710007CBD000020B1012201210248FEF74BBA26
:102720000022F9E7000802402DE9F04F87B014219C
:102730006846FDF741FF54480024016841F010014C
:102740000160016801F010010591016841F0040188
:102750000160016801F004010591016841F0800108
:102760000160016801F080010591016841F00101FB
:102770000160016801F001010591016841F0020169
:102780000160016801F002010591016841F0080152
:1027900001600068DFF8F4B000F008000590002246
:1027A00008215846FEF707FADFF8E49001221146A7
:1027B0004846FEF700FADFF8DCA04FF210080022CE
:1027C00041465046FEF7F7F9082601250096CDE967
:1027D0000154694658460394FEF7F0F80095CDE998
:1027E0000154694648460394FEF7E8F8009602262D
:1027F000CDE901640527CDE9034769464846FEF760
:10280000DDF84FF488100095CDE9010469462248AF
:10281000FEF7D4F80420CDE90004DFF88090694683
:1028200048460294FEF7CAF8A8020090CDE9016478
:10283000CDE9034769464846FEF7C0F8CDF8008069
:10284000CDE90154694650460394FEF7B7F82020BD
:10285000CDE90004694650460294FEF7AFF84FF404
:1028600090100096CDE9010469465846FEF7A6F897
:10287000002211460620FEF735FF0620FEF724FF52
:1028800007B0BDE8F08F0000303802400010024071
:1028900000080240000C0240000002400004024018
:1028A0000E4810B50C4901604FF48271416000215F
:1028B0008160C1604FF400720161C0E90512C1611D
:1028C0000162416281620A21C162FFF7A9FA002810
:1028D00001D072B6FEE710BD003001404801002073
:1028E00010B501220B490C4800F08CFD08B1FEF731
:1028F00037F80A49084801F0ECF808B1FEF730F85B
:10290000054801F029F9002803D0BDE81040FEF782
:1029100027B810BD6D3B0008380400208C00002053
:10292000FEE7FEE70148FEF70EBA00001C08002093
:10293000FFF7D6FF012001F005FEFBE710B5FEF71B
:1029400065FE02F0E3FE012803D0BDE8104002F06E
:10295000A3BB10BD30B593B030216846FDF72CFE07
:1029600014210CA8FDF728FE1E480025016841F03F
:1029700080510160006800F0805011901A48016891
:1029800041F4804101600068022400F4804011900D
:1029900001200090000401908001CDE9064008204C
:1029A00008904FF4A870CDE9090407200B90684601
:1029B000FFF780F808B172B6FEE70CA90F2081E896
:1029C00031004FF4A0500F904FF48050109005212B
:1029D0000CA8FEF785FF002801D072B6FEE713B001
:1029E00030BD0000403802400070004002480168DD
:1029F00041F470010160704788ED00E070B5044655
:102A000000680169E26821F44051114301612169C4
:102A1000A068E26908436169114308432168CA68F4
:102A200049F20C639A430243CA6020684169A26973
:102A300021F440711143416131492068884202D03C
:102A40003049884202D1FEF7F5FF01E0FEF7E2FFD0
:102A5000E2690023192164253226B2F5004F62682D
:102A600028D0A0FB0101930F9200FDF7B7FC0146AF
:102A7000B0FBF5F06FF01802504301EB800006EB5D
:102A80000010B0FBF5F000F0F002B1FBF5F002EB46
:102A90000012B1FBF5F06FF01803584301EB800012
:102AA00006EB0010B0FBF5F000F00F0021681044B9
:102AB000886070BDA0FB010192185B41FDF78EFCA0
:102AC0000146B0FBF5F00201B1FBF5F06FF0180321
:102AD000584301EB800006EBC000B0FBF5F000F0BE
:102AE000F80002EB4002B1FBF5F0584301EB800027
:102AF00006EBC000B0FBF5F000F00700D6E70000E1
:102B0000001001400014014010B500224FF6FF7381
:102B100000EB8204B4F8844324040BD49A4207D017
:102B200002F00F0300EB830041F40041C0F884136E
:102B3000D0B210BD521CD2B2102AE9D31A46F7E720
:102B40007FB51C46012501AE0023009586E80E00E6
:102B500002232A46214600F07CFD04B0002070BD0F
:102B60007FB51D4690F81D33089C03B10024012356
:102B7000CDE90031CDE9022402230022294600F0EC
:102B800068FD04B0002070BD70B50446D0F87C0329
:102B9000C16920464031FDF7E5FE050004D1D4F8B7
:102BA000D423022120469047284670BD70B50546C3
:102BB000D0F87C030026C469217839B1284600F09A
:102BC00027F92178284600F0B9F92670217B39B120
:102BD000284600F01DF9217B284600F0AFF9267346
:102BE000617B39B1284600F013F9617B284600F07B
:102BF000A5F96673D5F87C03C06920B1FDF7C7FB62
:102C0000D5F87C03C661002070BDFEB502220546E2
:102C10000123114600F070F90646FF2841D0022E2C
:102C20003FD20146284600F062FFD0BB5020FDF79E
:102C30007FFBD5F87C130446C861200031D05021B9
:102C4000FDF7BAFC06EB860000EBC60005EB400181
:102C500091F84E03020603D56070B1F8500360810D
:102C600061782846FFF750FF2070014695F81D0354
:102C7000638903228DE80D0095F81C33627828469D
:102C800000F0F8FC21780022284600F0BEFC00236A
:102C90001A460A21284600F02FF9FF2801D0022801
:102CA00001D30220FEBD00EB800101EBC00005EB6B
:102CB000400090F84E130A0604D5E173B0F85013A3
:102CC000618303E0A173B0F85013218390F8561389
:102CD0000A0604D5E173B0F85803608303E0A173DA
:102CE000B0F858032083A17B2846FFF70DFF6073DF
:102CF000E17B2846FFF708FF2073208B95F81D1312
:102D000002260091CDE9016095F81C33A27B617B1E
:102D1000284600F0AFFC608B95F81D130091CDE9BB
:102D2000016095F81C33E27B217B284600F0A2FC71
:102D3000002084F84C000246617B284600F065FCC8
:102D4000217B0022284600F060FC0020FEBD704779
:102D50002DE9F0410546D0F87C0301270026C4691F
:102D60004FF0040894F84C0005284AD2DFE800F040
:102D70000305163B4200002743E02122A16C2A7480
:102D800020226A746E82AE8207222846EA8200F010
:102D900062F848B9022084F84C0032E004F14001A6
:102DA0002846FDF7DFFD20B101282AD084F84C80A9
:102DB00027E084F84C60A06C94F8441002799142AA
:102DC0001FD194F84610827991421AD194F8451097
:102DD0004279914215D1216C0068814211D1284677
:102DE000FFF7B5FF0DE02846FDF74AFD2846FDF741
:102DF00008FD06E00021284600F00FF808B984F825
:102E00004C603846BDE8F08170470020704770473D
:102E100010B500F031FB002010BD8278012A07D1E7
:102E20000222027401224274002242828182C28202
:102E30000022114600F00FB87FB51C46012501AEF7
:102E40000023009586E80E002A46214600F001FC8A
:102E500004B0002070BD2DE9F041044601258078C2
:102E600003262F46012802D002281DD105E0A160CB
:102E7000A28127760220A0700EE0204600F026F9FD
:102E8000050004D0032D02D0022D04D004E0A77069
:102E90000020207600E0A770C4F8E06331460022ED
:102EA000D4F8D80301F0B8FB2846BDE8F0817FB51F
:102EB0001D4690F81D33089C03B100240123CDE981
:102EC0000031CDE9022400231A46294600F0C1FB57
:102ED00004B0002070BD1FB500231446CDE90031B9
:102EE0000822CDE902231A46214600F0B2FB04B0C5
:102EF000002010BDFDF742BD70B50546002005F568
:102F00004E7500BF00EB800404EBC00405EB4404E5
:102F1000E67B0A348E4201D0FF2909D1A679964278
:102F200001D0FF2A04D1E4799C4206D0FF2B04D0C3
:102F3000401CC0B20228E5D3FF2070BD102907D283
:102F400000EB8100B0F88413C1F30E01C0F88413C4
:102F50000020704730B48578029C012D0FD141F0DC
:102F6000800101740621417403214282B1EB122FCA
:102F700002D140F2094100E000218182C482224650
:102F800030BC1946FFF767BF0A8803781A440A80E5
:102F9000017808447047F8B50E4600F11C04009112
:102FA000054623464FF400720021FFF7D3FF0028A7
:102FB00006D1324621462846BDE8F84000F064BB01
:102FC000F8BD38B50D460091044600F58E734FF4F8
:102FD00080720021FFF7BEFF010044D194F81C016C
:102FE00084F8260394F81D0184F82703B4F81E0121
:102FF000A4F8280394F8200184F82A0394F8210106
:1030000084F82B0394F8220184F82C0394F823010C
:1030100084F82D03082806D0102804D0202802D0D8
:10302000402800D0402084F82D03082D1BD9B4F887
:103030002401A4F82E03B4F82601A4F83003B4F850
:103040002801A4F8320394F82A0184F8340394F890
:103050002B0184F8350394F82C0184F8360394F896
:103060002D0184F83703084638BDF8B51C461646CE
:10307000009341F4407200F58E731D460021FFF766
:1030800069FF002814D16978032911D129788A1E93
:10309000A24200D814460021A2B2AD1C04E06B5C31
:1030A000891C06F8013B89B29142F8D300213170A6
:1030B000F8BD01004FF0000004D0012901D0022921
:1030C00001D0022070470120704700002DE9F84F21
:1030D0000126017E04460B27032530464FF00908E0
:1030E0004FF007094FF0050B4FF00D0A0C2919D2CC
:1030F000DFE801F0BC060E303C465265707F8BA2C3
:10310000627904F110012046FFF7E5FE02202BE072
:103110006179204600F00BFA012804D0042817D06A
:10312000022815D0A2E0207CE18A00F0800031B1B5
:10313000802801D1257676E084F818B073E08028E5
:1031400003D100BF84F818806DE084F818906AE01D
:10315000277668E0D4F8C403E0812379A289204669
:10316000A168FFF769FE042020767FE021792046E0
:1031700000F0DDF90128E5D005284ED1032652E004
:1031800000906379A2892046A168FFF790FED4F8E9
:10319000C403E0810620E7E76179204600F0C7F923
:1031A0000128D2D0052804D00228C5D0042803D095
:1031B0005CE00C202076E1E72776022633E000224F
:1031C000237911462046FFF737FED4F8C403E08187
:1031D0000820C9E72179204600F0A9F9012804D088
:1031E0000428B5D00528C9D040E084F818A00026EE
:1031F00019E000900022637911462046FFF757FE40
:10320000D4F8C403E0810A20AEE76179204600F0DB
:103210008EF9012804D0022894D0042898D025E003
:10322000002684F818A0C4F8E05329460022D4F8F8
:10323000D80301F0F1F919E0617E491CC9B2617649
:10324000022902D82076A07010E0D4F8D4230621F9
:10325000204690470025657661792046FFF76EFE8F
:1032600021792046FFF76AFE257002263046BDE828
:10327000F88F00002DE9FE43044601274078002521
:103280000526B9464FF00D0804F58E7208280CD2B9
:10329000DFE800F0042A3D6A728892AA08212046DD
:1032A000FFF78FFE10B103280DD0A8E094F82D038E
:1032B000A07184F8019094F81D130091CDE901509C
:1032C00094F81C3339E094F81E03401CC0B284F813
:1032D0001E03032818D861792046FFF72FFE2179B5
:1032E0002046FFF72BFE5BE012212046FFF769FE28
:1032F000B0BB02203EE000BF94F81E03401CC0B2E9
:1033000084F81E03032842D984F8008077E0012165
:10331000204600F0F7FB10B1032822D06FE0022016
:10332000FFF7E8FD84F81C9303206070A07994F8FF
:103330001D13CDE900154B460290217980222046CD
:1033400000F098F9A07994F81D130091CDE901508F
:1033500094F81C3361790022204600F08BF94EE08E
:1033600010E084F8008033E009212046FFF713FEC7
:1033700040B90420607042E0B4F83A132046FFF7E9
:103380000AFE10B10328B7D039E0667037E06179E2
:103390002046FFF7D3FD21792046FFF7CFFD65706A
:1033A00025702CE094F83413062599B1FF232046AC
:1033B000FFF75BFE70B108E094F83513072549B1BB
:1033C000FF232046FFF751FE10B1032802D016E07C
:1033D000657014E06570C4F8E06331460022D4F8EB
:1033E000D80301F019F90AE094F8361331B1FF233C
:1033F0002046FFF73AFE08B1032800D100273846DF
:10340000BDE8FE8370B58CB00E46040030D084F861
:10341000CC230025C4F87C53C4F8805304F54874C9
:10342000FDF772FAE57025706570A570A4F5487413
:103430000EB1C4F8D4630F4B07AD0FCB85E80F0076
:10344000002107A801F08AF80A49C4F8D8031C2211
:1034500010316846FDF77EF82146684601F00AF90A
:10346000C4F8DC03204600F075F800200CB070BDF5
:103470000220FBE7045A000810B5D0F8D003FDF78E
:10348000C4FBBDE81040FFF714BE10B5012180F861
:103490002013002280F8212380F82223C0F8E013B3
:1034A000D0F8D80301F0B8F8002010BD70B50125A0
:1034B000044680F82153002084F8200384F8230375
:1034C000204600F0BDF821792046FFF737FD6179ED
:1034D0002046FFF733FDC4F8E05300222946D4F814
:1034E000D80301F099F8002070BD10B590F8CC0316
:1034F000012802D10846FFF70DF9C820FDF73EFA72
:10350000002010BDD0F8D003FDF777BB10B5012423
:10351000D0F8D003FDF765FB20B1012805D00228C3
:1035200003D101E0002400E00224204610BDD0F8C1
:10353000D003FDF759BBD0F8C413491CC0F8C4131D
:1035400001780B2905D1D0F87C13002901D08969B5
:103550000847704710B5044690F8CC0301281CD1E9
:103560000F484FF0A0410022C0F80043C4F8D00338
:103570000160082181600121C0E903120221C0E934
:103580000612FDF77DFC08B1FDF7EAF90448FDF7E6
:1035900025FB0146204600F035F8002010BD000054
:1035A0001C08002010B50121C0F8E013D0F8D803A2
:1035B000002201F031F8002010BDFEB508AF97E8F9
:1035C00070008DE87000D0F8D003FDF730FBBDE847
:1035D000FE40FFF76EBD002180F8231370470121E4
:1035E00080F82313C0F8E013D0F8D803002201F0CC
:1035F00013B810B5D0F8D003FDF7CEFCBDE81040ED
:10360000FFF757BDC0F8C4137047D0F8D00301EBE3
:10361000410303EBC10100EB810090F83B1011B1B5
:1036200080F8542001E080F855200020704710B544
:10363000D0F8D003FDF7B7FCBDE81040FFF739BD67
:1036400010B5D0F8D003FDF7C4FCBDE81040FFF77B
:1036500030BD2DE9FF410DF1280898E8F0008DE814
:10366000F000D0F8D003FDF721FB04B0BDE8F04135
:10367000FFF71FBDFEB508AF97E870008DE870003A
:10368000FFF79BFF0020FEBD2DE9F74F82B00878C1
:10369000029D4FF0000B0C4685F83803487885F8FA
:1036A00039034888D84605F54E75FF2801D94FF4EF
:1036B0008070688008792871487968718879A87164
:1036C000C879E871207A287229780920092900D060
:1036D0002870092A7CD98146ADF800005FE0694670
:1036E0002046FFF751FC04464078042854D1207846
:1036F000092801D084F8009008EB880101EBC8008C
:1037000005EB400A20788AF80A0060788AF80B00F6
:10371000A0788AF80C00E0788AF80D0020798AF801
:103720000E0060798AF80F00A0798AF81000E0791D
:103730000AF10A068AF81100207A307200271CE08C
:1037400069462046FFF720FC04464078052814D13E
:103750007079012802D1B079022830D0207807286A
:1037600001D0072020700AEBC701224614310298CD
:1037700000F030F87F1C8346FFB23079B84204D99C
:103780006888BDF800108842DAD83079B84211D87C
:1037900008F1010000F0FF08B8F1020F04D26888B8
:1037A000BDF8001088429AD82879022800D3022058
:1037B00040450DD9032005B0BDE8F08F08E0F07951
:1037C0000028D0D120780928CDD084F80090CAE70D
:1037D0005846F0E7F0B513780B7053784B70937838
:1037E0008B70D478CC7095888D80064693790020B4
:1037F0008B71D5B16FF30A058D8092884FF40077F5
:10380000C2F30A02BA4200D33A461543A1F8045063
:1038100096F81D13002904F0030108D001290BD0EC
:10382000E143890700D153B1F0BD0320F0E701293E
:1038300002D0E1438907F7D10BB1102BF4D9032053
:10384000F0BD2DE9FE43022104468DF8001094F8E6
:1038500021230020012A01D103222270227801268F
:10386000052700254FF00D084FF008090C2A70D2EB
:10387000DFE802F0061C3BFDFA70DE8C939EB3F489
:1038800094F82003002864D02670C820FFF732FB8C
:103890002046FFF7AEFE84F81C53C4F8E063C4F87A
:1038A000C85300223146D4F8D8036CE094F82303BF
:1038B00001280ED0D4F8C803B0F57A7F0DD994F85A
:1038C0001F03401CC0B284F81F0303286FD9404671
:1038D0006BE084F81F53217005E00A30C4F8C80378
:1038E0000A20FFF707FB314648E0D4F8D42312B191
:1038F0000421204690476420FFF7FCFA2046FFF79A
:1039000005FE84F81D03277000212046FFF7FCF810
:10391000607180212046FFF7F7F820710146A079F9
:1039200094F81D230092CDE9015094F81C338022B5
:103930002046FFF79FFEA07994F81D130091CDE972
:10394000015094F81C33617900222046FFF792FE63
:10395000C9E71AE02046FFF78DFC8DF800009DF8BE
:103960000000002811D184F8245394F8370301286B
:1039700001D0072070E048466EE03946C4F8E013F5
:103980000022D4F8D80300F047FE6DE0D4F8D42329
:10399000CAB3012120469047EDE794F83D13204635
:1039A00000F0BEF800289ED1092020709BE712E0AD
:1039B00094F83F034FF00A0580060CD501212046FC
:1039C00000F0BCF88DF800009DF8000018B19DF8DB
:1039D0000000032887D1257085E7D4F880130029DB
:1039E000CBD0C4F87C5394F8471304EB8002D2F890
:1039F000782312798A4207D104EB8000D0F878034B
:103A0000C4F87C0305E02FE0401C10F0FF00ECD070
:103A1000284658B181682046884738B9062020706A
:103A2000D4F8D423032120469047A6E7404613E06C
:103A3000D4F87C030028F9D00169204688478DF826
:103A400000009DF8000030B19DF800000228EDD084
:103A500093E703E00BE00B2020708EE7D4F87C03A3
:103A600010B14169204688470020BDE8FE8384F8F4
:103A700021532046FCF748FFD4F87C0320B1C168ED
:103A800020468847C4F87C53D4F8D42312B10521CA
:103A90002046904794F82203012803D02046FFF7E0
:103AA000C6FD20E784F82253204600F055F81AE7B7
:103AB0000EB504464FF0FF352A466846D4F8D813B1
:103AC00000F060FD00981028F6D12046FFF7B9FEFF
:103AD000F2E7002211B1D0F8803313B10222104670
:103AE00070470123C0F88033C0F87813F7E7024627
:103AF000002092F83C338B4202D982F8241370479D
:103B0000022070478278012A06D100220274052320
:103B1000437441828282C28200221146FFF79BB920
:103B20008278012A06D1002202740923437441825B
:103B30008282C28200221146FFF78DB98278012A63
:103B400006D1002202740323437441828282C2821E
:103B500000221146FFF77FB910B50446FFF767FD55
:103B600001212046FFF7C1FC002010BD01290AD029
:103B70000548022906D0042903D0052903D10321D1
:103B800000E00121017070471000002070B504466C
:103B900006990A9E049D0D98012916D0E06840F010
:103BA0004000E060204600F02BF8A16B1EB321F42A
:103BB0008031A163012D07D1A16841F00601A16008
:103BC000A16841F02001A16070BDA16B21F480319A
:103BD000A163E168094A1140E160E16821F4401104
:103BE000E160012803D1E06840F48010E0602046E5
:103BF00000F006F8DEE741F48031DAE7BFFFBDFFF1
:103C000008B500220D490092009B5B1C00938B427B
:103C10000CD80369002BF7DA0092026942F0010226
:103C20000261009A521C00928A4201D9032008BD09
:103C30000269D207F5D1002008BD0000400D030045
:103C4000816821F0010181600020704700EB411084
:103C5000064AC0F81025D0F8001521F0804141F047
:103C60000041C0F8001500207047000000000880E7
:103C700008B5D0F8402422F02E020092D20405D4D8
:103C8000012909D1009941F4805103E021B900993B
:103C900021F48051C0F84014002008BD816841F033
:103CA000010181600020704708B500220C49009294
:103CB000009B5B1C00938B420AD80369002BF7DA48
:103CC000009210220261009A521C00928A4201D98D
:103CD000032008BD0269D206F5D4002008BD00000B
:103CE000400D030018B500230D4A0093009C641C8E
:103CF000009494420CD80469002CF7DA0093202336
:103D000043EA811101610099491C0091914201D956
:103D1000032018BD01698906F5D4002018BD0000F4
:103D2000400D0300D0F8080480B2704708B5D0F801
:103D300040040090C0F3414008BD406900F001001C
:103D4000704718B5002200EB41110092D1F8002510
:103D5000D1F80035C2F381428468DB0FA40600D598
:103D60001BB34FF47A736AB1022A0BD0D1F8002545
:103D700042F08042C1F80025D0F8100410F47F0F03
:103D80002BD00CE0D1F8002542F08042C1F800258C
:103D90008268920609D4C06A10F47F0F07D0D1F868
:103DA000000540F00040C1F80005002018BDD1F822
:103DB000000520F00040C1F80005D1F8000540F0F2
:103DC0000040C1F800050098401C00909842ECD8D3
:103DD000D1F800050028F6DBE7E7D1F8000520F070
:103DE0000040C1F80005D1F8000540F00040C1F8DE
:103DF00000050098401C00909842D6D8D1F80005E4
:103E00000028F6DBD1E700002DE9F0431E46DDE98E
:103E10000785002700EB41147B1EDDF82490C4F8D1
:103E2000083505B3012D39D0022D1CD0032D2ED01D
:103E30005FF00107D4F80C3543F00203C4F80C35E9
:103E4000D0F8183401F00F0C012101FA0CF10B43EA
:103E5000C0F81834816941F00071816111062AD5DA
:103E60004FF4004128E040F29D43C4F80C3513069E
:103E700005D500BFD4F80C3543F4807318E0C36B4C
:103E8000DB05D7D5D4F80C3543F0600310E040F2E1
:103E90009D63C4F80C351306ECD4CBE740F2252320
:103EA000C4F80C351306C5D5D4F80C3543F4C073EB
:103EB000C4F80C35BEE70021FFF738FFB8F1020F58
:103EC00004D1022802D04FF4003000E000204FF06F
:103ED000FE5303EA86534FF4F04606EAC222134328
:103EE0004FF4402202EA85421343C9F30A02134306
:103EF0000B430343C4F80035032D01D0012D05D138
:103F0000D4F8000540F00050C4F800053846BDE87C
:103F1000F083D0F8140480B27047F8B54C78C56BC4
:103F20004FF48073ED0515D50D799DB9012A01D0A7
:103F30006AB10FE0CD790DB1022D0BD100EB441524
:103F4000D5F80C6526F07006C5F80C6502E04D79D1
:103F5000012D0DD04E697EB10D8977197F1EB7FBFB
:103F6000F5F7BFB29F4208D91F462B020B6104E050
:103F70002146FFF76BFE6EE00127CB781BB10B8962
:103F80007B430B6101E033460E61C3F312056FF012
:103F9000604303EAC7431D438B7A4FF0C04606EAED
:103FA00043731D4300EB4413C3F8105512B1CC68A2
:103FB000C3F81445D0F80844D3F8005544F300047E
:103FC00025F00055C3F80055D3F80055641C45EAA8
:103FD0004474C3F80045D3F8004524F080440094AD
:103FE000CC78002C009C02D044F4004401E024F47E
:103FF000004444F000440094C3F800455ABBCA781A
:104000004ABB4A693AB3CB7933B1012B0FD0022BAB
:1040100002D0032B17D10AE0D21CC36AC2F38F026D
:104020009BB293420FD2826942F020020AE0D21C76
:10403000D0F81034C2F38F029BB2934203D282694C
:1040400042F080628261002200928A8A93B24A78AA
:10405000C96800F035F90020F8BD00002DE9F041F5
:104060000025DDF81880174604462E46C0F8005E8D
:10407000806B40F40010A063A06B20F40020A063CC
:10408000A06B20F48020A063E06BC00501D5012B5C
:1040900004D0D4F8000420F0040103E0D4F80004B4
:1040A00040F004012046C4F800141021FFF71AFE66
:1040B00000B101252046FFF7F7FD00B101250020E2
:1040C000411E06E004EB4012C2F80815C2F80C6568
:1040D000401C8742F6D8A6616161E06BC00506D539
:1040E0004FF4007060620C48A0620C4804E080202D
:1040F00060620B48A0620B48C4F80001B8F1000FE1
:1041000003D1A06940F01000A061A06906490843EE
:10411000A0612846BDE8F081000200010003E00034
:1041200080006000E0004000080020A3D0F80024D8
:1041300022F00302C0F80024D0F8002401F00303A9
:104140001A43C0F80024012902D0022903D006E056
:104150004BF6803101E041F27071C0F80414002088
:104160007047416980690840704730B5034608468A
:10417000940802F00301002203F5805303E01D6858
:1041800040F8045B521CA242F9D300290BD01C68F2
:104190000022D50024FA05F3491E521C090400F838
:1041A000013B090CF5D130BD38B50446D0F84004C8
:1041B00020F02E00009040F48070C4F84004642089
:1041C00004F58864FCF7DAFB009820F48070206026
:1041D0000A20FCF7D3FB002038BD70B50446C06848
:1041E000002520F0C040E060012901D079B120E035
:1041F000E06840F00050E0600120FCF7BFFB606920
:104200006D1C10F0010F10D1322DF5D30DE0E068D8
:1042100040F08040E0600120FCF7B0FB60696D1C5D
:1042200010F0010F01D0322DF5D3322D01D0002036
:1042300070BD012070BD38B500250446009580682A
:1042400020F00100A06010212046FFF74BFD00B1D7
:1042500001252046FFF728FD00B10125002004EBD1
:104260004011D1F8002522F0802242F08042C1F8AE
:104270000025401C0F28F2D900204FF47A7304EB7C
:104280004011D1F8002522F4004242F04042C1F82A
:104290000025009A521C00929A4203D8D1F80025BA
:1042A000002AF6DB401C0F28E9D94FF0FF30C4F894
:1042B00014046061A06840F00100A060284638BD89
:1042C00010B5029C74B9DB1C9C0800EB0230002383
:1042D00000F5805004E000BF51F8042B02605B1C25
:1042E000A342F9D3002010BDFEE70907090E0028FC
:1042F00004DB00F1E02080F80014704700F00F00AC
:1043000000F1E02080F8141D7047EFF305800028CD
:1043100000D001207047000036488AB0016841F0A3
:1043200001010160FDF77AF9FEF714FBFEF7FCF9D5
:1043300032483149002401603149C0E901144FF489
:104340008041C0E9034144618461C4610462FCF7B7
:1043500053FE08B172B6FEE728482A49543001607E
:104360004915C0E90114C0E903412749C0E9051412
:10437000C4610462FDF736F808B172B6FEE7FEF7D5
:104380008FFA1E482149F43001604FF41651C0E9FC
:1043900001140C21C460C0E904418461C461FDF7CB
:1043A000E5FD08B172B6FEE719480424CDE90040E6
:1043B0000023802217A11C4801F050F91448002363
:1043C000001DCDE90040802218A11C4801F046F9EB
:1043D00000F07CFD1C221A4902A8FCF7BBF8002162
:1043E00002A800F047F90A49091FC86000F0B1F8B7
:1043F000FEE70000001000E000540040AC00002088
:10440000A0860100003C004000770100004400400D
:10441000040000204275746F6E206F6B756D612013
:104420007461736B69000000514400084C6564209E
:1044300079616B6D61207461736B69007D44000864
:10444000D059000801460020842900D0C81C7047BC
:10445000084D094C01212846FCF7A8FB0128F9D199
:1044600001212846FCF7A2FB0128F9D02078401C46
:104470002070EFE700000240000000202F4C304D7C
:104480004FF6FF762078E8B1012821D002282ED0FF
:1044900003283BD004284FF00102314628463DD086
:1044A000FCF789FB4FF4FA67384600F0C3FC0022A2
:1044B00031462846FCF77FFB384600F0BBFC002065
:1044C0002070DFE7002231462846FCF774FBD9E76D
:1044D000012231462846FCF76EFB642000F0AAFC5E
:1044E000002231462846FCF766FB642023E00122C7
:1044F00031462846FCF75FFBFA2000F09BFC0022C7
:1045000031462846FCF757FBFA2014E001223146D9
:104510002846FCF750FB4FF4FA7703E0FCF74BFB1F
:104520004FF47A77384600F085FC00223146284661
:10453000FCF741FB384600F07DFCA3E700000020BB
:10454000000C024010B500B9012000F073FC0020FF
:1045500010BD10B500F0BAFC002010BD38B5D0E990
:10456000011204683AB1C3682BB1002000902046C4
:1045700000F0C9FD38BD2046BDE83840002200F0FB
:10458000A1BD00002DE9FF410D004FF00006CDE96F
:10459000016507461ED000240396501C1FD002B1AF
:1045A0001446FFF7B2FE69464FF01008E8B103AABF
:1045B0002846091D00F0CAFF012813D00096039871
:1045C000E8B114494FF080500860BFF34F8FBFF33C
:1045D0006F8F14E0802031462A46009011E04FF0A2
:1045E000FF34DEE7CDF80080E9E722462846091DC2
:1045F00000F010FF012808D054B1402000909DE841
:10460000070087E80700BDE8FF81CDF80080F6E7E6
:104610000020F3E704ED00E037B5054682B0002046
:104620000090140000D10124FFF76FFE4FF000034B
:1046300088B16A4603A9284600F08CFE012811D1F2
:10464000009890B10A494FF080500860BFF34F8F37
:10465000BFF36F8F09E0224603A9284600F0CAFD88
:10466000012802D0FF2005B030BD0020FBE700008C
:1046700004ED00E07FB50D4604464169B0F908003D
:1046800081B1A16971B1FFF7DDFED4E905128DE8B2
:104690000700D4E900102B46226901F00CF80390C2
:1046A00004B070BDFFF7CEFE03A9CDE90001208A5A
:1046B0002B4682B2D4E9001000F0D0FF012801D0CF
:1046C0000020EDE70398EBE72DE9F041184C0F4689
:1046D0000546E6682068001D00F0BAFA38B920687F
:1046E00090F82C1001208840216981432161681CC9
:1046F00007D137B12168BDE8F0410E48091D00F02F
:10470000EBBA20683544B5424560216805D2A06BFC
:10471000BDE8F041091D00F0C7BA606B091D00F04B
:10472000C3FAA06A854200D2A562BDE8F08100000C
:1047300024000020FC0B00202DE9F041054600F08C
:10474000D7FA2E4CA068401CA06020682C4F10B1F6
:10475000606940B32DE02560A068012829D10026BA
:1047600006EB860007EB800000F090FA761C072E1F
:10477000F6D323488C3000F089FA2148A03000F0AD
:1047800085FA1F48B43000F081FA1D48C83000F0A7
:104790007DFA1B48DC3000F079FA19488C306063F0
:1047A0001430A06305E02068E96AC06A884200D836
:1047B0002560606A401C6062E96A012022698840C5
:1047C0001043206101EB810007EB8000291D00F000
:1047D00083FA00F0ADFA606900280CD02068E96A1D
:1047E000C06A884207D207494FF080500860BFF383
:1047F0004F8FBFF36F8FBDE8F081000024000020D1
:10480000200B002004ED00E030B4026C0B46002ABF
:104810000BD0C1681144C1608468A14201D3016812
:10482000C16030BC1846FBF750BE30BC70472DE964
:10483000F041856B174604460026026C82B1C7B171
:10484000E068FBF742FEE168206C091AE16022682B
:10485000914202D2A168081AE060022F16D017E038
:104860002068A8B9A06800F0C5FF06460020A06037
:104870000EE06068FBF729FE216C60680844606008
:10488000A168884204D32068606001E005B16D1E14
:104890006D1CA5633046BDE8F08110B5044690F864
:1048A000510058B101280CD002280FD0502080F3BD
:1048B0001188BFF34F8FBFF36F8FFEE7206B00F0BF
:1048C0004BFA2046BDE8104000F046BA10BD00008B
:1048D00010484FF47051420706D0C01D0D4920F01A
:1048E0000700411AC1F570510B4A00230144C2E987
:1048F00000030839183A21F0070111604B600B6082
:104900000B1AC0E9001393604FF0004053605061F0
:1049100070470000100C002078000020144E154C49
:10492000A6F1C8074FF08058DFF84C9012E000BFA6
:1049300000F0DEF9F068C568281D00F089F9A0686C
:10494000401EA0606068401E606000F0F1F92846DB
:10495000FFF7A3FF60680028EAD138680128F9D979
:10496000C9F80080BFF34F8FBFF36F8FF2E70000ED
:10497000E80B00202400002004ED00E0034600982E
:1049800029B10260C0E90F31012100F0EFBB0060E6
:10499000F8E72DE9F0479A46DDE9098481466FF092
:1049A0000303206B03EB82021044089E20F00707EC
:1049B000780707D0502080F31188BFF34F8FBFF3E3
:1049C0006F8FFEE7002561B1002023180A5C83F891
:1049D00034200A5C12B1401C1028F6D384F84350EE
:1049E00001E084F83450072E00D30626E662C4E9BD
:1049F0001165201D00F055F904F1180000F051F97F
:104A00002461C6F107006462A061E56484F8505037
:104A100052464946384600F005F92060B8F1000FCB
:104A200001D0C8F80040BDE8F087000030B511495A
:104A300000E011460A688242FBD34B685C1884424E
:104A400003D1406818444860084643681C189442E3
:104A500009D1084C183C2468A24209D052681A4473
:104A600042600A6812680260814200D0086030BD6E
:104A70000460F9E77800002010B5044600F038F92A
:104A8000A06B28B15FF0000400F052F9204610BD81
:104A90000124F9E70648416B096829B1416BC968EF
:104AA000C9684968816270474FF0FF31FAE700003A
:104AB0002400002008484068401C4FF0500080F35C
:104AC000118804D0BFF34F8FBFF36F8FFEE7BFF3A2
:104AD0004F8FBFF36F8FFEE7800000202DE9F0417C
:104AE000044600F005F994F9455004F1240609E064
:104AF000606A48B1304600F0C9FE08B100F0C8F95C
:104B00006D1E6DB2002DF3DC4FF0FF3684F845606A
:104B100000F00EF900F0ECF894F9445004F110079D
:104B200009E0206948B1384600F0B0FE08B100F055
:104B3000AFF96D1E6DB2002DF3DC84F84460BDE862
:104B4000F04100F0F5B800002DE9F04105460027DE
:104B500000F0F2F9324E306808B9FFF7B9FE70691B
:104B600005424ED1C5B3083568070ED005F00700E1
:104B7000C0F108000544680707D0502080F3118871
:104B8000BFF34F8FBFF36F8FFEE72DB37068854281
:104B900037D82348183001460C6801E020460C46FF
:104BA0006168A94202D221680029F7D131688C429C
:104BB00027D007682168016060680837411B102909
:104BC0000FD96019420708D0502080F31188BFF335
:104BD0004F8FBFF36F8FFEE713E041606560FFF713
:104BE00025FF61687068401A7060B268904200D218
:104BF000B060706901430020C4E90001F068401C06
:104C0000F06000F07DFE780707D0502080F3118817
:104C1000BFF34F8FBFF36F8FFEE73846BDE8F081DB
:104C20006000002010B5031F4FF080741C601B1F34
:104C300021F001011960191F044B0B6014390A603F
:104C4000091F6FF0020244380A6010BDB54A00081F
:104C5000D0E9013201699A60D0E901235A604A68BB
:104C6000824201D182684A60002202610868401EC7
:104C70000860086870470000034B036003F15400AC
:104C80000860802010607047E401002000F10801F6
:104C90004FF0FF32C0E90112C160016100210160E3
:104CA000704700210161704730B50B685A1C02D073
:104CB00000F1080202E0026904E022465468256817
:104CC0009D42FAD953684B6099608A6051600861CF
:104CD0000168491C016030BD42684A6093688B607E
:104CE00093685960916008610168491C01607047D0
:104CF000502080F31188BFF34F8FBFF36F8F0A49A5
:104D00004868401C486001280CD10848006810F031
:104D1000FF0F07D0502080F31188BFF34F8FBFF3F0
:104D20006F8FFEE7704700008000002004ED00E078
:104D30000849486828B1401E486001D180F31188B5
:104D40007047502080F31188BFF34F8FBFF36F8FF0
:104D5000FEE700008000002070B500282AD0164D24
:104D6000A0F1080460686969084207D1502080F307
:104D70001188BFF34F8FBFF36F8FFEE722683AB100
:104D8000502080F31188BFF34F8FBFF36F8FFEE782
:104D90008843606000F0D0F8606869680844686023
:104DA0002046FFF743FE2869401C2861BDE870409B
:104DB00000F0A6BD70BD0000600000204FF0E020B4
:104DC00000210161816105494FF47A720968B1FBE4
:104DD000F2F1491E41610721016170472000002066
:104DE00010B5FBF781FA114910280ED300F1E0202D
:104DF00090F8F0030A78904207D2502080F311888F
:104E0000BFF34F8FBFF36F8FFEE7094800688968D3
:104E100000F4E060884207D9502080F31188BFF386
:104E20004F8FBFF36F8FFEE710BD000080000020A2
:104E30000CED00E010B5020014D00F48006B38B143
:104E4000502080F31188BFF34F8FBFF36F8FFEE7C1
:104E500000F072F800211046FFF736FC00F050FD1C
:104E6000002807D105494FF080500860BFF34F8FED
:104E7000BFF36F8F10BD00002400002004ED00E0A0
:104E800002490A6A0260C968416070472400002034
:104E900001490120C86170472400002010B50C466C
:104EA00050B1094909681831FFF7FEFE2046BDE8F8
:104EB00010400121FFF708BC502080F31188BFF398
:104EC0004F8FBFF36F8FFEE72400002010B586B030
:104ED0000024039405AA04A903A80494FFF7CCFEB8
:104EE000DDE903010094CDE9011000230EA1104873
:104EF000059A00F0E0FB0F490028C86211D050204D
:104F000080F31188BFF34F8FBFF36F8F4FF0FF30E7
:104F1000886201204861CC6006B0BDE8104000F016
:104F200041B806B010BD000049444C4500000000E7
:104F30001D490008240000200248016B491C016340
:104F400070470000240000201448016B11B10121BA
:104F5000C16170470021C1610169B1FA81F1C1F1FC
:104F60001F0101EB81020E4951F822306BB101EBB8
:104F7000820101F108034A6852684A609A4201D1ED
:104F800052684A60D16801607047502080F31188F0
:104F9000BFF34F8FBFF36F8FFEE7000024000020A8
:104FA000200B00201CB537480168374A914207D1D1
:104FB000502080F31188BFF34F8FBFF36F8FFEE750
:104FC00000683149491E884207D1502080F311887A
:104FD000BFF34F8FBFF36F8FFEE72C490878019026
:104FE000FF20087008788DF800009DF800009DF8FB
:104FF000002000F0F000904207D0502080F311888C
:10500000BFF34F8FBFF36F8FFEE79DF80000204C7A
:1050100000F0500020700720A06005E09DF80020FF
:1050200052008DF80020401E9DF800201206F5D495
:10503000A060032807D0502080F31188BFF34F8F62
:10504000BFF36F8FFEE74FF44070A06001980870C7
:105050000C482030016841F470010160016841F0A2
:1050600070410160FFF7AAFE00206060FBF704F9C1
:105070000848016841F040410160FBF7E9F8002071
:105080001CBD000000ED00E071C20F4100E400E033
:105090008000002034EF00E010B5502080F311882C
:1050A000BFF34F8FBFF36F8F00F03EFB18B1044981
:1050B0004FF080500860002080F3118810BD000080
:1050C00004ED00E0F8B517460E46050013D005FBC9
:1050D00006F04830FFF738FD04000AD0002084F8BD
:1050E000460004F148023B46314628460094FFF74B
:1050F00045FC2046F8BD502080F31188BFF34F8F48
:10510000BFF36F8FFEE738B5049D18B153B1CAB134
:1051100081B120E0502080F31188BFF34F8FBFF39F
:105120006F8FFEE7502080F31188BFF34F8FBFF3DE
:105130006F8FFEE7502080F31188BFF34F8FBFF3CE
:105140006F8FFEE739B1502080F31188BFF34F8F86
:10515000BFF36F8FFEE748241C46012384F84630D6
:105160002B460094FFF70AFC204638BD70B50D466B
:10517000040025D0FFF7BCFDD4E90F20216802FB15
:105180000011A1600021A163216861600A46D4E991
:105190000F01401E00FB0121E16021464FF0FF306E
:1051A00001F8440F487004F110008DB1FFF76EFD57
:1051B00004F12400FFF76AFDFFF7BAFD012070BD7E
:1051C000502080F31188BFF34F8FBFF36F8FFEE73E
:1051D00021690029F0D000F059FB0028ECD00449E7
:1051E0004FF080500860BFF34F8FBFF36F8FE3E73E
:1051F00004ED00E02DE9FF4782B01D468A464FF0DE
:105200000008040003D0BAF1000F08D011E05020CC
:1052100080F31188BFF34F8FBFF36F8FFEE7206CD1
:1052200038B1502080F31188BFF34F8FBFF36F8FD9
:10523000FEE7022D0AD1E06B012807D0502080F351
:105240001188BFF34F8FBFF36F8FFEE700F05EFA58
:105250003F4F4FF000094FF0805648B9049838B1DD
:10526000502080F31188BFF34F8FBFF36F8FFEE79D
:10527000FFF73EFDA06BE16B884207D3022D05D0FE
:105280000498D0B1B8F1000F1AD01EE02A4651465A
:105290002046FFF7CCFA616A19B104F1240000F04E
:1052A000F5FA20B13E60BFF34F8FBFF36F8FFFF76A
:1052B0003FFD012006B0BDE8F087FFF739FD22E091
:1052C0006846FFF7DDFD4FF00108FFF731FDFFF7FE
:1052D00033FEFFF70DFD94F94400401C01D184F822
:1052E000449094F94500401C01D184F84590FFF7A3
:1052F0001FFD04A9684600F077F930B12046FFF79A
:10530000EDFB00F0FDFA0020D4E7FFF7F1FCA06B05
:10531000E16B884213D1FFF70BFD04F110000499F3
:10532000FFF7BCFD2046FFF7D9FB00F0E9FA0028A3
:105330009ED13E60BFF34F8FBFF36F8F98E7FFF7AB
:10534000F7FC2046FFF7CAFB00F0DAFA90E700000E
:1053500004ED00E02DE9F0471F4690468946040021
:1053600003D0B9F1000F08D011E0502080F311886C
:10537000BFF34F8FBFF36F8FFEE7206C38B1502023
:1053800080F31188BFF34F8FBFF36F8FFEE7022FBB
:105390000AD1E06B012807D0502080F31188BFF3B9
:1053A0004F8FBFF36F8FFEE7FFF71AFD5020EFF32B
:1053B000118680F31188BFF34F8FBFF36F8FA06BFF
:1053C000E16B884206D3022F04D0002086F31188B7
:1053D000BDE8F08794F94550A06B3A46494620460F
:1053E000FFF725FA681C04D06D1C84F84550012095
:1053F000ECE7606A0028FAD004F1240000F046FAD5
:105400000028F4D0B8F1000FF1D00121C8F8001045
:10541000EDE700002DE9F747002683B08A46040037
:1054200003D0BAF1000F08D011E0502080F31188AA
:10543000BFF34F8FBFF36F8FFEE7206C38B1502062
:1054400080F31188BFF34F8FBFF36F8FFEE700F03B
:105450005DF9DFF8F4804FF000094FF0805748B94C
:10546000059838B1502080F31188BFF34F8FBFF3F8
:105470006F8FFEE7FFF73CFCA56BC5B15146204698
:10548000FFF7C2F96D1EA563206950B104F1100049
:1054900000F0FCF928B1C8F80070BFF34F8FBFF3DC
:1054A0006F8FFFF745FC012006B0BDE8F087059837
:1054B00008B11EB106E0FFF73BFC27E06846FFF7A6
:1054C000DFFC0126FFF734FCFFF736FDFFF710FC89
:1054D00094F94400401C01D184F8449094F94500AB
:1054E000401C01D184F84590FFF722FC05A96846CD
:1054F00000F07AF8002820460AD0FFF7EFFA00F013
:10550000FFF92046FFF7B8FA0028B3D00020CBE718
:10551000FFF7B2FA90B104F124000599FFF7BEFC41
:105520002046FFF7DBFA00F0EBF90028A2D1C8F81B
:105530000070BFF34F8FBFF36F8F9BE72046FFF7DD
:10554000CDFA00F0DDF995E704ED00E02DE9F04734
:1055500090468946040003D0B9F1000F08D011E04D
:10556000502080F31188BFF34F8FBFF36F8FFEE79A
:10557000206C38B1502080F31188BFF34F8FBFF3F8
:105580006F8FFEE7FFF72CFC5020EFF3118680F3BE
:105590001188BFF34F8FBFF36F8FA76BF7B194F9EB
:1055A000445049462046FFF72FF97F1EA763681C29
:1055B00004D06D1C84F84450012010E020690028BC
:1055C000FAD004F1100000F061F90028F4D0B8F12D
:1055D000000FF1D00121C8F80010EDE7002086F39C
:1055E0001188BDE8F08700002DE9F0410C46050068
:1055F00011D0C4B1FFF77CFB174BDA686E682068E6
:10560000911B471C17D02F681B6A9F4219D09642E6
:1056100017D8012410E0502080F31188BFF34F8F7A
:10562000BFF36F8FFEE7502080F31188BFF34F8FD9
:10563000BFF36F8FFEE70024FFF77AFB2046BDE83B
:10564000F081884205D9401A20602846FFF718FCEF
:10565000F1E700202060DCE7240000202DE9FF5F57
:105660008346DDE90E87994616468A469000FFF785
:105670006BFA05001CD05420FFF766FA040014D022
:105680000020256384F85100CDE90240CDE9008770
:105690004B46324651465846FFF77BF92046FFF706
:1056A0004BF8012004B0BDE8F09F2846FFF754FBFB
:1056B0004FF0FF30F6E7F0B585B0DDE90B640A9DE9
:1056C000A6B1DCB1542700972663022684F8516006
:1056D000002604AFCDE90246CDE90057FFF759F99E
:1056E0002046FFF729F8049805B0F0BD502080F35C
:1056F0001188BFF34F8FBFF36F8FFEE7502080F309
:105700001188BFF34F8FBFF36F8FFEE705484169E4
:1057100019B1006B18B100207047012070470220BA
:1057200070470000240000202DE9F0412F4C002696
:10573000206B28B1A069401CA0613046BDE8F08113
:10574000E5686D1CE56013D1606B006838B15020CE
:1057500080F31188BFF34F8FBFF36F8FFEE7606B4D
:10576000A16B6163A063206A401C2062FFF792F97D
:10577000A06ADFF87C80854209D3606B0068A0B125
:10578000606BC068C7687868854211D2A0622068E3
:10579000C06A00EB800158F82100012800D90126D9
:1057A000E0690028C9D00126C7E74FF0FF30EDE7D8
:1057B000381DFFF74DFAB86A18B107F11800FFF766
:1057C00047FAF96A0120226988401043206101EB01
:1057D000810108EB8100391DFFF77EFAF86A216824
:1057E000C96A8842C9D30126C7E700002400002007
:1057F000200B002070B504004FF0000140D0214D77
:105800002868844207D0502080F31188BFF34F8F5F
:10581000BFF36F8FFEE7A06C38B1401EA064636CCD
:10582000E26A9A422CD040B12AE0502080F31188DD
:10583000BFF34F8FBFF36F8FFEE7201DFFF708FA0E
:10584000114A012150B9E06A00EB800352F823307D
:1058500023B92B6901FA00F083432B61606CE0628D
:10586000C0F10700A061E06A2B69814019432961FA
:1058700000EB800002EB8000211DFFF72DFA0121D3
:10588000084670BD24000020200B00202DE9F041C7
:10589000C068C468ACB104F118000746FFF7D8F936
:1058A000154D286B0126A0B139461448FFF714FAAC
:1058B000E06A2968C96A88421CD90120EE61BDE806
:1058C000F081502080F31188BFF34F8FBFF36F8FAB
:1058D000FEE7201DFFF7BCF9E16A2A6906FA01F02C
:1058E0001043286101EB81000449B43901EB8000C9
:1058F000211DDBE70020E2E724000020D40B00207C
:105900002DE9F0472C4D00242746286B38B1FFF7CE
:10591000EFF9286B401E2863286B40B146E0502009
:1059200080F31188BFF34F8FBFF36F8FFEE7A96835
:10593000224E0120D1B3A6F1B40980463068E8B107
:10594000F068C46804F11800FFF782F9201DFFF722
:105950007FF9E06A2A6908FA00F11143296100EB36
:10596000800109EB8100211DFFF7B6F9E06A296883
:10597000C96A8842E2D3C5F81C80DFE70CB1FFF7A3
:1059800089F8AC6944B14646FFF7CEFE00B1EE613E
:10599000641EF9D10020A861E86938B108490127DF
:1059A00038070860BFF34F8FBFF36F8FFFF7C0F961
:1059B0003846BDE8F087000024000020D40B00200A
:1059C00004ED00E04FF04070E1EE100A7047000077
:1059D000305A0008312900080000000000000000D3
:1059E0008000000000000000000000000000000037
:1059F000000000000102030406070809000000007F
:105A0000010203041000000002000000000000007A
:105A1000000000003C5A0008B13A000800000000F5
:105A200000000000800000000000000000000000F6
:105A300064656661756C745461736B0055534248BC
:105A40005F54687265616400434443006C5A000807
:105A500000000020AC000000C4010008185B000832
:105A6000AC000020C44D0000E00100080000000070
:105A70000000000000000000000000000000000026
:105A80000100000010000000000000000024F400ED
:105A90000000000000000000000000000000000006
:105AA00000000000000000000000000000000000F6
:105AB00000000000000000000000000000000000E6
:105AC00000000000000000000000000000000000D6
:105AD00000000000000000000000000000000000C6
